{
  "address": "0xd5FE8f5AB1C68d138A0ED826f9896A272D41bfd0",
  "abi": [
    {
      "inputs": [
        {
          "internalType": "address",
          "name": "target",
          "type": "address"
        }
      ],
      "name": "AddressEmptyCode",
      "type": "error"
    },
    {
      "inputs": [
        {
          "internalType": "uint64",
          "name": "destinationChainSelector",
          "type": "uint64"
        }
      ],
      "name": "DestinationChainNotAllowlisted",
      "type": "error"
    },
    {
      "inputs": [
        {
          "internalType": "address",
          "name": "implementation",
          "type": "address"
        }
      ],
      "name": "ERC1967InvalidImplementation",
      "type": "error"
    },
    {
      "inputs": [],
      "name": "ERC1967NonPayable",
      "type": "error"
    },
    {
      "inputs": [],
      "name": "FailedInnerCall",
      "type": "error"
    },
    {
      "inputs": [
        {
          "internalType": "address",
          "name": "owner",
          "type": "address"
        },
        {
          "internalType": "address",
          "name": "target",
          "type": "address"
        },
        {
          "internalType": "uint256",
          "name": "value",
          "type": "uint256"
        }
      ],
      "name": "FailedToWithdrawEth",
      "type": "error"
    },
    {
      "inputs": [],
      "name": "InvalidInitialization",
      "type": "error"
    },
    {
      "inputs": [],
      "name": "InvalidReceiverAddress",
      "type": "error"
    },
    {
      "inputs": [
        {
          "internalType": "uint256",
          "name": "currentBalance",
          "type": "uint256"
        },
        {
          "internalType": "uint256",
          "name": "calculatedFees",
          "type": "uint256"
        }
      ],
      "name": "NotEnoughBalance",
      "type": "error"
    },
    {
      "inputs": [],
      "name": "NotInitializing",
      "type": "error"
    },
    {
      "inputs": [],
      "name": "NothingToWithdraw",
      "type": "error"
    },
    {
      "inputs": [],
      "name": "UUPSUnauthorizedCallContext",
      "type": "error"
    },
    {
      "inputs": [
        {
          "internalType": "bytes32",
          "name": "slot",
          "type": "bytes32"
        }
      ],
      "name": "UUPSUnsupportedProxiableUUID",
      "type": "error"
    },
    {
      "anonymous": false,
      "inputs": [
        {
          "indexed": false,
          "internalType": "uint64",
          "name": "version",
          "type": "uint64"
        }
      ],
      "name": "Initialized",
      "type": "event"
    },
    {
      "anonymous": false,
      "inputs": [
        {
          "indexed": false,
          "internalType": "uint256",
          "name": "feeAmount",
          "type": "uint256"
        }
      ],
      "name": "InvokeSwap",
      "type": "event"
    },
    {
      "anonymous": false,
      "inputs": [
        {
          "indexed": true,
          "internalType": "bytes32",
          "name": "messageId",
          "type": "bytes32"
        },
        {
          "indexed": true,
          "internalType": "uint64",
          "name": "destinationChainSelector",
          "type": "uint64"
        },
        {
          "indexed": false,
          "internalType": "address",
          "name": "receiver",
          "type": "address"
        },
        {
          "indexed": false,
          "internalType": "address",
          "name": "token",
          "type": "address"
        },
        {
          "indexed": false,
          "internalType": "uint256",
          "name": "tokenAmount",
          "type": "uint256"
        },
        {
          "indexed": false,
          "internalType": "address",
          "name": "feeToken",
          "type": "address"
        },
        {
          "indexed": false,
          "internalType": "uint256",
          "name": "fees",
          "type": "uint256"
        }
      ],
      "name": "TokensTransferred",
      "type": "event"
    },
    {
      "anonymous": false,
      "inputs": [
        {
          "indexed": true,
          "internalType": "address",
          "name": "implementation",
          "type": "address"
        }
      ],
      "name": "Upgraded",
      "type": "event"
    },
    {
      "inputs": [],
      "name": "UPGRADE_INTERFACE_VERSION",
      "outputs": [
        {
          "internalType": "string",
          "name": "",
          "type": "string"
        }
      ],
      "stateMutability": "view",
      "type": "function"
    },
    {
      "inputs": [
        {
          "internalType": "contract IRouterClient",
          "name": "router_",
          "type": "address"
        },
        {
          "internalType": "uint64",
          "name": "chainASelector_",
          "type": "uint64"
        },
        {
          "internalType": "uint64",
          "name": "chainBSelector_",
          "type": "uint64"
        },
        {
          "internalType": "uint64",
          "name": "chainCSelector_",
          "type": "uint64"
        }
      ],
      "name": "initialize",
      "outputs": [],
      "stateMutability": "nonpayable",
      "type": "function"
    },
    {
      "inputs": [],
      "name": "proxiableUUID",
      "outputs": [
        {
          "internalType": "bytes32",
          "name": "",
          "type": "bytes32"
        }
      ],
      "stateMutability": "view",
      "type": "function"
    },
    {
      "inputs": [
        {
          "internalType": "uint64",
          "name": "chainSelector",
          "type": "uint64"
        },
        {
          "internalType": "address",
          "name": "LynkMessager",
          "type": "address"
        }
      ],
      "name": "setChainMessager",
      "outputs": [],
      "stateMutability": "nonpayable",
      "type": "function"
    },
    {
      "inputs": [
        {
          "internalType": "address",
          "name": "tokenIn",
          "type": "address"
        },
        {
          "internalType": "address",
          "name": "tokenOut",
          "type": "address"
        },
        {
          "internalType": "uint256",
          "name": "amountA",
          "type": "uint256"
        },
        {
          "internalType": "uint256",
          "name": "minA",
          "type": "uint256"
        },
        {
          "internalType": "uint256",
          "name": "amountB",
          "type": "uint256"
        },
        {
          "internalType": "uint256",
          "name": "minB",
          "type": "uint256"
        },
        {
          "internalType": "uint256",
          "name": "amountC",
          "type": "uint256"
        },
        {
          "internalType": "uint256",
          "name": "minC",
          "type": "uint256"
        }
      ],
      "name": "swap",
      "outputs": [],
      "stateMutability": "nonpayable",
      "type": "function"
    },
    {
      "inputs": [
        {
          "internalType": "address",
          "name": "newImplementation",
          "type": "address"
        },
        {
          "internalType": "bytes",
          "name": "data",
          "type": "bytes"
        }
      ],
      "name": "upgradeToAndCall",
      "outputs": [],
      "stateMutability": "payable",
      "type": "function"
    }
  ],
  "transactionHash": "0xb63af7b4109c3c6def50dcd9cdddd22b42d0da62b4d596ff1b706093ad1e27b1",
  "args": [],
  "numDeployments": 3,
  "solcInputHash": "90c654ef1b69b75be2b8ab00f91f7923",
  "bytecode": "0x60a06040523073ffffffffffffffffffffffffffffffffffffffff1660809073ffffffffffffffffffffffffffffffffffffffff16815250348015604257600080fd5b50608051611beb61006c600039600081816108db015281816109300152610ae30152611beb6000f3fe6080604052600436106100555760003560e01c80632b81cb8e1461005a5780634f1ef2861461008357806352d1902d1461009f578063ad3cb1cc146100ca578063cca2c1c8146100f5578063df3d33051461011e575b600080fd5b34801561006657600080fd5b50610081600480360381019061007c919061118e565b610147565b005b61009d6004803603810190610098919061138a565b61022f565b005b3480156100ab57600080fd5b506100b461024e565b6040516100c191906113ff565b60405180910390f35b3480156100d657600080fd5b506100df610281565b6040516100ec9190611499565b60405180910390f35b34801561010157600080fd5b5061011c600480360381019061011791906114fb565b6102ba565b005b34801561012a57600080fd5b5061014560048036038101906101409190611579565b610333565b005b600061015161058d565b9050600061017a8260000160149054906101000a900467ffffffffffffffff168b8b8b8b6105b5565b905060006101a38360010160009054906101000a900467ffffffffffffffff168c8c8a8a6105b5565b905060006101cc8460010160089054906101000a900467ffffffffffffffff168d8d89896105b5565b905060008183856101dd919061160f565b6101e7919061160f565b90507fa3c013c18468127d3421d1e049e45ab3dc5ca6ea8cc2093c02020b60ec263567816040516102189190611652565b60405180910390a150505050505050505050505050565b6102376108d9565b610240826109bf565b61024a82826109c2565b5050565b6000610258610ae1565b7f360894a13ba1a3210667c828492db98dca3e2076cc3735a920a3ca505d382bbc60001b905090565b6040518060400160405280600581526020017f352e302e3000000000000000000000000000000000000000000000000000000081525081565b60006102c461058d565b9050818160020160008567ffffffffffffffff1667ffffffffffffffff16815260200190815260200160002060006101000a81548173ffffffffffffffffffffffffffffffffffffffff021916908373ffffffffffffffffffffffffffffffffffffffff160217905550505050565b600061033d610b68565b905060008160000160089054906101000a900460ff1615905060008260000160009054906101000a900467ffffffffffffffff1690506000808267ffffffffffffffff1614801561038b5750825b9050600060018367ffffffffffffffff161480156103c0575060003073ffffffffffffffffffffffffffffffffffffffff163b145b9050811580156103ce575080155b15610405576040517ff92ee8a900000000000000000000000000000000000000000000000000000000815260040160405180910390fd5b60018560000160006101000a81548167ffffffffffffffff021916908367ffffffffffffffff16021790555083156104555760018560000160086101000a81548160ff0219169083151502179055505b600061045f61058d565b9050898160000160006101000a81548173ffffffffffffffffffffffffffffffffffffffff021916908373ffffffffffffffffffffffffffffffffffffffff160217905550888160000160146101000a81548167ffffffffffffffff021916908367ffffffffffffffff160217905550878160010160006101000a81548167ffffffffffffffff021916908367ffffffffffffffff160217905550868160010160086101000a81548167ffffffffffffffff021916908367ffffffffffffffff1602179055505083156105825760008560000160086101000a81548160ff0219169083151502179055507fc7f505b2f371ae2175ee4913f4499e1f2633a7b5936321eed1cdaeb6115181d2600160405161057991906116b2565b60405180910390a15b505050505050505050565b60007f42631c0a284ed7d4e8004e5fc9bdf44dbbde6ac8d81ad52470bb1ab538a9aa00905090565b6000806105c061058d565b905060008160020160008967ffffffffffffffff1667ffffffffffffffff16815260200190815260200160002060009054906101000a900473ffffffffffffffffffffffffffffffffffffffff16905060008787878760405160200161062994939291906116dc565b6040516020818303038152906040529050600061064a838a89600086610b90565b90508360000160009054906101000a900473ffffffffffffffffffffffffffffffffffffffff1673ffffffffffffffffffffffffffffffffffffffff166320487ded8b836040518363ffffffff1660e01b81526004016106ab92919061190c565b602060405180830381865afa1580156106c8573d6000803e3d6000fd5b505050506040513d601f19601f820116820180604052508101906106ec9190611951565b9450478511156107355747856040517f8f0f420600000000000000000000000000000000000000000000000000000000815260040161072c92919061197e565b60405180910390fd5b8873ffffffffffffffffffffffffffffffffffffffff1663095ea7b38560000160009054906101000a900473ffffffffffffffffffffffffffffffffffffffff16896040518363ffffffff1660e01b81526004016107949291906119a7565b6020604051808303816000875af11580156107b3573d6000803e3d6000fd5b505050506040513d601f19601f820116820180604052508101906107d79190611a08565b5060008460000160009054906101000a900473ffffffffffffffffffffffffffffffffffffffff1673ffffffffffffffffffffffffffffffffffffffff166396f4e9f9878d856040518463ffffffff1660e01b815260040161083a92919061190c565b60206040518083038185885af1158015610858573d6000803e3d6000fd5b50505050506040513d601f19601f8201168201806040525081019061087d9190611a61565b90508a67ffffffffffffffff16817fc15fb748c32ba4eb29c1c311e78533f93b4425eab49ea87c6fe4279ecadca043868d8c60008c6040516108c3959493929190611a8e565b60405180910390a3505050505095945050505050565b7f000000000000000000000000000000000000000000000000000000000000000073ffffffffffffffffffffffffffffffffffffffff163073ffffffffffffffffffffffffffffffffffffffff16148061098657507f000000000000000000000000000000000000000000000000000000000000000073ffffffffffffffffffffffffffffffffffffffff1661096d610cbc565b73ffffffffffffffffffffffffffffffffffffffff1614155b156109bd576040517fe07c8dba00000000000000000000000000000000000000000000000000000000815260040160405180910390fd5b565b50565b8173ffffffffffffffffffffffffffffffffffffffff166352d1902d6040518163ffffffff1660e01b8152600401602060405180830381865afa925050508015610a2a57506040513d601f19601f82011682018060405250810190610a279190611a61565b60015b610a6b57816040517f4c9c8ce3000000000000000000000000000000000000000000000000000000008152600401610a629190611ae1565b60405180910390fd5b7f360894a13ba1a3210667c828492db98dca3e2076cc3735a920a3ca505d382bbc60001b8114610ad257806040517faa1d49a4000000000000000000000000000000000000000000000000000000008152600401610ac991906113ff565b60405180910390fd5b610adc8383610d13565b505050565b7f000000000000000000000000000000000000000000000000000000000000000073ffffffffffffffffffffffffffffffffffffffff163073ffffffffffffffffffffffffffffffffffffffff1614610b66576040517fe07c8dba00000000000000000000000000000000000000000000000000000000815260040160405180910390fd5b565b60007ff0c57e16840df040f15088dc2f81fe391c3923bec73e23a9662efc9c229c6a00905090565b610b98611071565b6000600167ffffffffffffffff811115610bb557610bb461125f565b5b604051908082528060200260200182016040528015610bee57816020015b610bdb6110b6565b815260200190600190039081610bd35790505b50905060405180604001604052808773ffffffffffffffffffffffffffffffffffffffff1681526020018681525081600081518110610c3057610c2f611afc565b5b60200260200101819052506040518060a0016040528088604051602001610c579190611ae1565b60405160208183030381529060405281526020018481526020018281526020018573ffffffffffffffffffffffffffffffffffffffff168152602001610cad6040518060200160405280622dc6c0815250610d86565b81525091505095945050505050565b6000610cea7f360894a13ba1a3210667c828492db98dca3e2076cc3735a920a3ca505d382bbc60001b610e05565b60000160009054906101000a900473ffffffffffffffffffffffffffffffffffffffff16905090565b610d1c82610e0f565b8173ffffffffffffffffffffffffffffffffffffffff167fbc7cd75a20ee27fd9adebab32041f755214dbc6bffa90cc0225b39da2e5c2d3b60405160405180910390a2600081511115610d7957610d738282610edc565b50610d82565b610d81610f60565b5b5050565b60606397a657c960e01b82604051602401610da19190611b47565b604051602081830303815290604052907bffffffffffffffffffffffffffffffffffffffffffffffffffffffff19166020820180517bffffffffffffffffffffffffffffffffffffffffffffffffffffffff83818316178352505050509050919050565b6000819050919050565b60008173ffffffffffffffffffffffffffffffffffffffff163b03610e6b57806040517f4c9c8ce3000000000000000000000000000000000000000000000000000000008152600401610e629190611ae1565b60405180910390fd5b80610e987f360894a13ba1a3210667c828492db98dca3e2076cc3735a920a3ca505d382bbc60001b610e05565b60000160006101000a81548173ffffffffffffffffffffffffffffffffffffffff021916908373ffffffffffffffffffffffffffffffffffffffff16021790555050565b60606000808473ffffffffffffffffffffffffffffffffffffffff1684604051610f069190611b9e565b600060405180830381855af49150503d8060008114610f41576040519150601f19603f3d011682016040523d82523d6000602084013e610f46565b606091505b5091509150610f56858383610f9d565b9250505092915050565b6000341115610f9b576040517fb398979f00000000000000000000000000000000000000000000000000000000815260040160405180910390fd5b565b606082610fb257610fad8261102c565b611024565b60008251148015610fda575060008473ffffffffffffffffffffffffffffffffffffffff163b145b1561101c57836040517f9996b3150000000000000000000000000000000000000000000000000000000081526004016110139190611ae1565b60405180910390fd5b819050611025565b5b9392505050565b60008151111561103f5780518082602001fd5b6040517f1425ea4200000000000000000000000000000000000000000000000000000000815260040160405180910390fd5b6040518060a00160405280606081526020016060815260200160608152602001600073ffffffffffffffffffffffffffffffffffffffff168152602001606081525090565b6040518060400160405280600073ffffffffffffffffffffffffffffffffffffffff168152602001600081525090565b6000604051905090565b600080fd5b600080fd5b600073ffffffffffffffffffffffffffffffffffffffff82169050919050565b6000611125826110fa565b9050919050565b6111358161111a565b811461114057600080fd5b50565b6000813590506111528161112c565b92915050565b6000819050919050565b61116b81611158565b811461117657600080fd5b50565b60008135905061118881611162565b92915050565b600080600080600080600080610100898b0312156111af576111ae6110f0565b5b60006111bd8b828c01611143565b98505060206111ce8b828c01611143565b97505060406111df8b828c01611179565b96505060606111f08b828c01611179565b95505060806112018b828c01611179565b94505060a06112128b828c01611179565b93505060c06112238b828c01611179565b92505060e06112348b828c01611179565b9150509295985092959890939650565b600080fd5b600080fd5b6000601f19601f8301169050919050565b7f4e487b7100000000000000000000000000000000000000000000000000000000600052604160045260246000fd5b6112978261124e565b810181811067ffffffffffffffff821117156112b6576112b561125f565b5b80604052505050565b60006112c96110e6565b90506112d5828261128e565b919050565b600067ffffffffffffffff8211156112f5576112f461125f565b5b6112fe8261124e565b9050602081019050919050565b82818337600083830152505050565b600061132d611328846112da565b6112bf565b90508281526020810184848401111561134957611348611249565b5b61135484828561130b565b509392505050565b600082601f83011261137157611370611244565b5b813561138184826020860161131a565b91505092915050565b600080604083850312156113a1576113a06110f0565b5b60006113af85828601611143565b925050602083013567ffffffffffffffff8111156113d0576113cf6110f5565b5b6113dc8582860161135c565b9150509250929050565b6000819050919050565b6113f9816113e6565b82525050565b600060208201905061141460008301846113f0565b92915050565b600081519050919050565b600082825260208201905092915050565b60005b83811015611454578082015181840152602081019050611439565b60008484015250505050565b600061146b8261141a565b6114758185611425565b9350611485818560208601611436565b61148e8161124e565b840191505092915050565b600060208201905081810360008301526114b38184611460565b905092915050565b600067ffffffffffffffff82169050919050565b6114d8816114bb565b81146114e357600080fd5b50565b6000813590506114f5816114cf565b92915050565b60008060408385031215611512576115116110f0565b5b6000611520858286016114e6565b925050602061153185828601611143565b9150509250929050565b60006115468261111a565b9050919050565b6115568161153b565b811461156157600080fd5b50565b6000813590506115738161154d565b92915050565b60008060008060808587031215611593576115926110f0565b5b60006115a187828801611564565b94505060206115b2878288016114e6565b93505060406115c3878288016114e6565b92505060606115d4878288016114e6565b91505092959194509250565b7f4e487b7100000000000000000000000000000000000000000000000000000000600052601160045260246000fd5b600061161a82611158565b915061162583611158565b925082820190508082111561163d5761163c6115e0565b5b92915050565b61164c81611158565b82525050565b60006020820190506116676000830184611643565b92915050565b6000819050919050565b6000819050919050565b600061169c6116976116928461166d565b611677565b6114bb565b9050919050565b6116ac81611681565b82525050565b60006020820190506116c760008301846116a3565b92915050565b6116d68161111a565b82525050565b60006080820190506116f160008301876116cd565b6116fe60208301866116cd565b61170b6040830185611643565b6117186060830184611643565b95945050505050565b61172a816114bb565b82525050565b600081519050919050565b600082825260208201905092915050565b600061175782611730565b611761818561173b565b9350611771818560208601611436565b61177a8161124e565b840191505092915050565b600081519050919050565b600082825260208201905092915050565b6000819050602082019050919050565b6117ba8161111a565b82525050565b6117c981611158565b82525050565b6040820160008201516117e560008501826117b1565b5060208201516117f860208501826117c0565b50505050565b600061180a83836117cf565b60408301905092915050565b6000602082019050919050565b600061182e82611785565b6118388185611790565b9350611843836117a1565b8060005b8381101561187457815161185b88826117fe565b975061186683611816565b925050600181019050611847565b5085935050505092915050565b600060a083016000830151848203600086015261189e828261174c565b915050602083015184820360208601526118b8828261174c565b915050604083015184820360408601526118d28282611823565b91505060608301516118e760608601826117b1565b50608083015184820360808601526118ff828261174c565b9150508091505092915050565b60006040820190506119216000830185611721565b81810360208301526119338184611881565b90509392505050565b60008151905061194b81611162565b92915050565b600060208284031215611967576119666110f0565b5b60006119758482850161193c565b91505092915050565b60006040820190506119936000830185611643565b6119a06020830184611643565b9392505050565b60006040820190506119bc60008301856116cd565b6119c96020830184611643565b9392505050565b60008115159050919050565b6119e5816119d0565b81146119f057600080fd5b50565b600081519050611a02816119dc565b92915050565b600060208284031215611a1e57611a1d6110f0565b5b6000611a2c848285016119f3565b91505092915050565b611a3e816113e6565b8114611a4957600080fd5b50565b600081519050611a5b81611a35565b92915050565b600060208284031215611a7757611a766110f0565b5b6000611a8584828501611a4c565b91505092915050565b600060a082019050611aa360008301886116cd565b611ab060208301876116cd565b611abd6040830186611643565b611aca60608301856116cd565b611ad76080830184611643565b9695505050505050565b6000602082019050611af660008301846116cd565b92915050565b7f4e487b7100000000000000000000000000000000000000000000000000000000600052603260045260246000fd5b602082016000820151611b4160008501826117c0565b50505050565b6000602082019050611b5c6000830184611b2b565b92915050565b600081905092915050565b6000611b7882611730565b611b828185611b62565b9350611b92818560208601611436565b80840191505092915050565b6000611baa8284611b6d565b91508190509291505056fea2646970667358221220a274057cac49cdffc00d2859aeabf20763e61bece84c98ef33d1c7f8a57aa6e264736f6c63430008190033",
  "devdoc": {
    "errors": {
      "AddressEmptyCode(address)": [
        {
          "details": "There's no code at `target` (it is not a contract)."
        }
      ],
      "ERC1967InvalidImplementation(address)": [
        {
          "details": "The `implementation` of the proxy is invalid."
        }
      ],
      "ERC1967NonPayable()": [
        {
          "details": "An upgrade function sees `msg.value > 0` that may be lost."
        }
      ],
      "FailedInnerCall()": [
        {
          "details": "A call to an address target failed. The target may have reverted."
        }
      ],
      "InvalidInitialization()": [
        {
          "details": "The contract is already initialized."
        }
      ],
      "NotInitializing()": [
        {
          "details": "The contract is not initializing."
        }
      ],
      "UUPSUnauthorizedCallContext()": [
        {
          "details": "The call is from an unauthorized context."
        }
      ],
      "UUPSUnsupportedProxiableUUID(bytes32)": [
        {
          "details": "The storage `slot` is unsupported as a UUID."
        }
      ]
    },
    "events": {
      "Initialized(uint64)": {
        "details": "Triggered when the contract has been initialized or reinitialized."
      },
      "Upgraded(address)": {
        "details": "Emitted when the implementation is upgraded."
      }
    },
    "kind": "dev",
    "methods": {
      "proxiableUUID()": {
        "details": "Implementation of the ERC1822 {proxiableUUID} function. This returns the storage slot used by the implementation. It is used to validate the implementation's compatibility when performing an upgrade. IMPORTANT: A proxy pointing at a proxiable contract should not be considered proxiable itself, because this risks bricking a proxy that upgrades to it, by delegating to itself until out of gas. Thus it is critical that this function revert if invoked through a proxy. This is guaranteed by the `notDelegated` modifier."
      },
      "swap(address,address,uint256,uint256,uint256,uint256,uint256,uint256)": {
        "details": "a for amoy, b for base sepolia, c for fuji"
      },
      "upgradeToAndCall(address,bytes)": {
        "custom:oz-upgrades-unsafe-allow-reachable": "delegatecall",
        "details": "Upgrade the implementation of the proxy to `newImplementation`, and subsequently execute the function call encoded in `data`. Calls {_authorizeUpgrade}. Emits an {Upgraded} event."
      }
    },
    "version": 1
  },
  "userdoc": {
    "kind": "user",
    "methods": {},
    "version": 1
  },
  "storageLayout": {
    "storage": [],
    "types": null
  }
}