{
  "address": "0xe2672c3cC10767a4194fa5034eF051cc9adFdeBf",
  "abi": [
    {
      "inputs": [
        {
          "internalType": "address",
          "name": "target",
          "type": "address"
        }
      ],
      "name": "AddressEmptyCode",
      "type": "error"
    },
    {
      "inputs": [
        {
          "internalType": "uint64",
          "name": "destinationChainSelector",
          "type": "uint64"
        }
      ],
      "name": "DestinationChainNotAllowlisted",
      "type": "error"
    },
    {
      "inputs": [
        {
          "internalType": "address",
          "name": "implementation",
          "type": "address"
        }
      ],
      "name": "ERC1967InvalidImplementation",
      "type": "error"
    },
    {
      "inputs": [],
      "name": "ERC1967NonPayable",
      "type": "error"
    },
    {
      "inputs": [],
      "name": "FailedInnerCall",
      "type": "error"
    },
    {
      "inputs": [
        {
          "internalType": "address",
          "name": "owner",
          "type": "address"
        },
        {
          "internalType": "address",
          "name": "target",
          "type": "address"
        },
        {
          "internalType": "uint256",
          "name": "value",
          "type": "uint256"
        }
      ],
      "name": "FailedToWithdrawEth",
      "type": "error"
    },
    {
      "inputs": [],
      "name": "InvalidInitialization",
      "type": "error"
    },
    {
      "inputs": [],
      "name": "InvalidReceiverAddress",
      "type": "error"
    },
    {
      "inputs": [
        {
          "internalType": "uint256",
          "name": "currentBalance",
          "type": "uint256"
        },
        {
          "internalType": "uint256",
          "name": "calculatedFees",
          "type": "uint256"
        }
      ],
      "name": "NotEnoughBalance",
      "type": "error"
    },
    {
      "inputs": [],
      "name": "NotInitializing",
      "type": "error"
    },
    {
      "inputs": [],
      "name": "NothingToWithdraw",
      "type": "error"
    },
    {
      "inputs": [],
      "name": "UUPSUnauthorizedCallContext",
      "type": "error"
    },
    {
      "inputs": [
        {
          "internalType": "bytes32",
          "name": "slot",
          "type": "bytes32"
        }
      ],
      "name": "UUPSUnsupportedProxiableUUID",
      "type": "error"
    },
    {
      "anonymous": false,
      "inputs": [
        {
          "indexed": false,
          "internalType": "uint64",
          "name": "version",
          "type": "uint64"
        }
      ],
      "name": "Initialized",
      "type": "event"
    },
    {
      "anonymous": false,
      "inputs": [
        {
          "indexed": true,
          "internalType": "bytes32",
          "name": "messageIdA",
          "type": "bytes32"
        },
        {
          "indexed": true,
          "internalType": "bytes32",
          "name": "messageIdB",
          "type": "bytes32"
        },
        {
          "indexed": true,
          "internalType": "bytes32",
          "name": "messageIdC",
          "type": "bytes32"
        },
        {
          "indexed": false,
          "internalType": "address",
          "name": "fromToken",
          "type": "address"
        },
        {
          "indexed": false,
          "internalType": "uint256",
          "name": "fromAmount",
          "type": "uint256"
        },
        {
          "indexed": false,
          "internalType": "uint256",
          "name": "feeAmount",
          "type": "uint256"
        }
      ],
      "name": "InvokeSwap",
      "type": "event"
    },
    {
      "anonymous": false,
      "inputs": [
        {
          "indexed": true,
          "internalType": "bytes32",
          "name": "messageId",
          "type": "bytes32"
        },
        {
          "indexed": true,
          "internalType": "uint64",
          "name": "destinationChainSelector",
          "type": "uint64"
        },
        {
          "indexed": false,
          "internalType": "address",
          "name": "receiver",
          "type": "address"
        },
        {
          "indexed": false,
          "internalType": "address",
          "name": "token",
          "type": "address"
        },
        {
          "indexed": false,
          "internalType": "uint256",
          "name": "tokenAmount",
          "type": "uint256"
        },
        {
          "indexed": false,
          "internalType": "address",
          "name": "feeToken",
          "type": "address"
        },
        {
          "indexed": false,
          "internalType": "uint256",
          "name": "fees",
          "type": "uint256"
        }
      ],
      "name": "TokensTransferred",
      "type": "event"
    },
    {
      "anonymous": false,
      "inputs": [
        {
          "indexed": true,
          "internalType": "address",
          "name": "implementation",
          "type": "address"
        }
      ],
      "name": "Upgraded",
      "type": "event"
    },
    {
      "inputs": [],
      "name": "UPGRADE_INTERFACE_VERSION",
      "outputs": [
        {
          "internalType": "string",
          "name": "",
          "type": "string"
        }
      ],
      "stateMutability": "view",
      "type": "function"
    },
    {
      "inputs": [
        {
          "internalType": "contract IRouterClient",
          "name": "router_",
          "type": "address"
        },
        {
          "internalType": "uint64",
          "name": "chainASelector_",
          "type": "uint64"
        },
        {
          "internalType": "uint64",
          "name": "chainBSelector_",
          "type": "uint64"
        },
        {
          "internalType": "uint64",
          "name": "chainCSelector_",
          "type": "uint64"
        }
      ],
      "name": "initialize",
      "outputs": [],
      "stateMutability": "nonpayable",
      "type": "function"
    },
    {
      "inputs": [],
      "name": "proxiableUUID",
      "outputs": [
        {
          "internalType": "bytes32",
          "name": "",
          "type": "bytes32"
        }
      ],
      "stateMutability": "view",
      "type": "function"
    },
    {
      "inputs": [
        {
          "internalType": "uint64",
          "name": "chainSelector",
          "type": "uint64"
        },
        {
          "internalType": "address",
          "name": "LynkMessager",
          "type": "address"
        }
      ],
      "name": "setChainMessager",
      "outputs": [],
      "stateMutability": "nonpayable",
      "type": "function"
    },
    {
      "inputs": [
        {
          "internalType": "uint64",
          "name": "chainSelector",
          "type": "uint64"
        },
        {
          "internalType": "address",
          "name": "originToken",
          "type": "address"
        },
        {
          "internalType": "address",
          "name": "destToken",
          "type": "address"
        }
      ],
      "name": "setTokenMap",
      "outputs": [],
      "stateMutability": "nonpayable",
      "type": "function"
    },
    {
      "inputs": [
        {
          "internalType": "address",
          "name": "tokenIn",
          "type": "address"
        },
        {
          "internalType": "address",
          "name": "tokenOut",
          "type": "address"
        },
        {
          "internalType": "uint256",
          "name": "amountA",
          "type": "uint256"
        },
        {
          "internalType": "uint256",
          "name": "minA",
          "type": "uint256"
        },
        {
          "internalType": "uint256",
          "name": "amountB",
          "type": "uint256"
        },
        {
          "internalType": "uint256",
          "name": "minB",
          "type": "uint256"
        },
        {
          "internalType": "uint256",
          "name": "amountC",
          "type": "uint256"
        },
        {
          "internalType": "uint256",
          "name": "minC",
          "type": "uint256"
        }
      ],
      "name": "swap",
      "outputs": [],
      "stateMutability": "nonpayable",
      "type": "function"
    },
    {
      "inputs": [
        {
          "internalType": "address",
          "name": "newImplementation",
          "type": "address"
        },
        {
          "internalType": "bytes",
          "name": "data",
          "type": "bytes"
        }
      ],
      "name": "upgradeToAndCall",
      "outputs": [],
      "stateMutability": "payable",
      "type": "function"
    },
    {
      "stateMutability": "payable",
      "type": "receive"
    }
  ],
  "transactionHash": "0x1a761ea5ba006556c1a1edf938f00093827827226cca55c457cb9f805570cbf4",
  "args": [],
  "numDeployments": 7,
  "solcInputHash": "0ed904de7907497049fee0e9a125a5cb",
  "bytecode": "0x60a060405234603957600e6048565b6014603d565b611f8a610095823960805181818161169a0152818161170601526118900152611f8a90f35b6043565b60405190565b600080fd5b604e6088565b565b60018060a01b031690565b90565b606d60696071926050565b605b565b6050565b90565b607b90605e565b90565b6085906074565b90565b608f30607e565b60805256fe60806040526004361015610015575b3661069957005b61002060003561008f565b8063293618f41461008a5780632b81cb8e146100855780634f1ef2861461008057806352d1902d1461007b578063ad3cb1cc14610076578063cca2c1c8146100715763df3d33050361000e57610662565b6105b7565b610554565b610407565b6103a7565b610234565b610157565b60e01c90565b60405190565b600080fd5b600080fd5b600080fd5b67ffffffffffffffff1690565b6100c0816100aa565b036100c757565b600080fd5b905035906100d9826100b7565b565b60018060a01b031690565b6100ef906100db565b90565b6100fb816100e6565b0361010257565b600080fd5b90503590610114826100f2565b565b909160608284031261014c5761014961013284600085016100cc565b936101408160208601610107565b93604001610107565b90565b6100a0565b60000190565b346101865761017061016a366004610116565b91610765565b610178610095565b8061018281610151565b0390f35b61009b565b90565b6101978161018b565b0361019e57565b600080fd5b905035906101b08261018e565b565b91906101008382031261022f576101cc8160008501610107565b926101da8260208301610107565b926101e883604084016101a3565b926101f681606085016101a3565b9261020482608083016101a3565b9261022c6102158460a085016101a3565b936102238160c086016101a3565b9360e0016101a3565b90565b6100a0565b3461026c576102566102473660046101b2565b96959095949194939293610965565b61025e610095565b8061026881610151565b0390f35b61009b565b600080fd5b600080fd5b601f801991011690565b634e487b7160e01b600052604160045260246000fd5b906102a59061027b565b810190811067ffffffffffffffff8211176102bf57604052565b610285565b906102d76102d0610095565b928361029b565b565b67ffffffffffffffff81116102f7576102f360209161027b565b0190565b610285565b90826000939282370152565b9092919261031d610318826102d9565b6102c4565b9381855260208501908284011161033957610337926102fc565b565b610276565b9080601f8301121561035c5781602061035993359101610308565b90565b610271565b9190916040818403126103a25761037b8360008301610107565b92602082013567ffffffffffffffff811161039d5761039a920161033e565b90565b6100a5565b6100a0565b6103bb6103b5366004610361565b90610b0e565b6103c3610095565b806103cd81610151565b0390f35b60009103126103dc57565b6100a0565b90565b6103ed906103e1565b9052565b9190610405906000602085019401906103e4565b565b34610437576104173660046103d1565b610433610422610b8a565b61042a610095565b918291826103f1565b0390f35b61009b565b67ffffffffffffffff811161045a5761045660209161027b565b0190565b610285565b9061047161046c8361043c565b6102c4565b918252565b60007f352e302e30000000000000000000000000000000000000000000000000000000910152565b6104a8600561045f565b906104b560208301610476565b565b6104bf61049e565b90565b6104ca6104b7565b90565b6104d56104c2565b90565b5190565b60209181520190565b60005b8381106104f9575050906000910152565b8060209183015181850152016104e8565b61052961053260209361053793610520816104d8565b938480936104dc565b958691016104e5565b61027b565b0190565b610551916020820191600081840391015261050a565b90565b34610584576105643660046103d1565b61058061056f6104cd565b610577610095565b9182918261053b565b0390f35b61009b565b91906040838203126105b257806105a66105af92600086016100cc565b93602001610107565b90565b6100a0565b346105e6576105d06105ca366004610589565b90610bd1565b6105d8610095565b806105e281610151565b0390f35b61009b565b6105f4906100e6565b90565b610600816105eb565b0361060757565b600080fd5b90503590610619826105f7565b565b60808183031261065d57610632826000830161060c565b9261065a61064384602085016100cc565b9361065181604086016100cc565b936060016100cc565b90565b6100a0565b346106945761067e61067536600461061b565b92919091610fa5565b610686610095565b8061069081610151565b0390f35b61009b565b600080fd5b90565b6106b56106b06106ba926100aa565b61069e565b61018b565b90565b906106c7906106a1565b600052602052604060002090565b6106e96106e46106ee926100db565b61069e565b6100db565b90565b6106fa906106d5565b90565b610706906106f1565b90565b90610713906106fd565b600052602052604060002090565b60001b90565b9061073860018060a01b0391610721565b9181191691161790565b90565b9061075a610755610761926106fd565b610742565b8254610727565b9055565b61078b929161078161078692600361077b610fb3565b016106bd565b610709565b610745565b565b634e487b7160e01b600052601160045260246000fd5b6107b26107b89193929361018b565b9261018b565b82018092116107c357565b61078d565b6107d1906106d5565b90565b6107dd906107c8565b90565b6107e9906106f1565b90565b6107f5906106f1565b90565b60e01b90565b151590565b61080c816107fe565b0361081357565b600080fd5b9050519061082582610803565b565b906020828203126108415761083e91600001610818565b90565b6100a0565b61084f906100e6565b9052565b61085c9061018b565b9052565b60409061088a610891949695939661088060608401986000850190610846565b6020830190610846565b0190610853565b565b61089b610095565b3d6000823e3d90fd5b60a01c90565b67ffffffffffffffff1690565b6108c36108c8916108a4565b6108aa565b90565b6108d590546108b7565b90565b60001c90565b6108ea6108ef916108d8565b6108aa565b90565b6108fc90546108de565b90565b60401c90565b610911610916916108ff565b6108aa565b90565b6109239054610905565b90565b61092f906103e1565b90565b60409061095c610963949695939661095260608401986000850190610846565b6020830190610853565b0190610853565b565b9590969196939293610975610fb3565b9461098b6109848a87906107a3565b84906107a3565b988960206109a061099b8c6107d4565b6107e0565b6323b872dd906109ce600033936109d96109b9306107ec565b976109c2610095565b988997889687956107f8565b855260048501610860565b03925af18015610ae957610abd575b50866000016109f6906108cb565b91899184909192610a069461134a565b9690969486600101610a17906108f2565b91899184909192610a279461134a565b93909395600101610a3790610919565b928892909192610a469461134a565b9190919490610a54916107a3565b90610a5e916107a3565b90919293947f8f131ca39c983032bca048bd1763cf6b98c596965441607258bd290db5ff35af92610a8e90610926565b93610a9890610926565b94610aa290610926565b95610aab610095565b928392610ab89284610932565b0390a4565b610add9060203d8111610ae2575b610ad5818361029b565b810190610827565b6109e8565b503d610acb565b610893565b90610b0091610afb611689565b610b02565b565b90610b0c91611771565b565b90610b1891610aee565b565b600090565b610b3090610b2b61187f565b610b7e565b90565b90565b610b4a610b45610b4f92610b33565b610721565b6103e1565b90565b610b7b7f360894a13ba1a3210667c828492db98dca3e2076cc3735a920a3ca505d382bbc610b36565b90565b50610b87610b52565b90565b610b9a610b95610b1a565b610b1f565b90565b610bb1610bac610bb6926100aa565b61069e565b6100aa565b90565b90610bc390610b9d565b600052602052604060002090565b90610be9610bee926002610be3610fb3565b01610bb9565b610745565b565b60ff1690565b610c02610c07916108ff565b610bf0565b90565b610c149054610bf6565b90565b90565b610c2e610c29610c3392610c17565b61069e565b6100aa565b90565b90565b610c4d610c48610c5292610c36565b61069e565b6100aa565b90565b610c5e906106f1565b90565b610c75610c70610c7a92610c17565b61069e565b61018b565b90565b90610c9067ffffffffffffffff91610721565b9181191691161790565b90565b90610cb2610cad610cb992610b9d565b610c9a565b8254610c7d565b9055565b60401b90565b90610cd768ff000000000000000091610cbd565b9181191691161790565b610cea906107fe565b90565b90565b90610d05610d00610d0c92610ce1565b610ced565b8254610cc3565b9055565b610d1990610c39565b9052565b9190610d3190600060208501940190610d10565b565b909192610d3e6118e4565b93610d54610d4e60008701610c0a565b156107fe565b93610d61600087016108f2565b80610d75610d6f6000610c1a565b916100aa565b1480610e9a575b90610d90610d8a6001610c39565b916100aa565b1480610e71575b610da29091156107fe565b9081610e60575b50610e3d57610dd393610dc8610dbf6001610c39565b60008901610c9d565b85610e2a575b610f67565b610ddb575b50565b610de9906000809101610cf0565b6001610e217fc7f505b2f371ae2175ee4913f4499e1f2633a7b5936321eed1cdaeb6115181d291610e18610095565b91829182610d1d565b0390a138610dd8565b610e38600160008901610cf0565b610dce565b610e45610095565b63f92ee8a960e01b815280610e5c60048201610151565b0390fd5b610e6b9150156107fe565b38610da9565b50610da2610e7e30610c55565b3b610e92610e8c6000610c61565b9161018b565b149050610d97565b5085610d7c565b610eaa906106d5565b90565b610eb690610ea1565b90565b90565b90610ed1610ecc610ed892610ead565b610eb9565b8254610727565b9055565b60a01b90565b90610ef867ffffffffffffffff60a01b91610edc565b9181191691161790565b90610f17610f12610f1e92610b9d565b610c9a565b8254610ee2565b9055565b90610f3d6fffffffffffffffff000000000000000091610cbd565b9181191691161790565b90610f5c610f57610f6392610b9d565b610c9a565b8254610f22565b9055565b9192610f9c610fa394610f94600194610f8b610f81610fb3565b9760008901610ebc565b60008701610f02565b838501610c9d565b9101610f47565b565b90610fb1939291610d33565b565b7f42631c0a284ed7d4e8004e5fc9bdf44dbbde6ac8d81ad52470bb1ab538a9aa0090565b600090565b60018060a01b031690565b610ff3610ff8916108d8565b610fdc565b90565b6110059054610fe7565b90565b61103e6110459461103460609498979561102a608086019a6000870190610846565b6020850190610846565b6040830190610853565b0190610853565b565b61105b61105661106092610c17565b61069e565b6100db565b90565b61106c90611047565b90565b60018060a01b031690565b61108661108b916108d8565b61106f565b90565b611098905461107a565b90565b6110a4906106f1565b90565b905051906110b48261018e565b565b906020828203126110d0576110cd916000016110a7565b90565b6100a0565b6110de906100aa565b9052565b5190565b60209181520190565b61110e61111760209361111c93611105816110e2565b938480936110e6565b958691016104e5565b61027b565b0190565b5190565b60209181520190565b60200190565b61113c906100e6565b9052565b6111499061018b565b9052565b906020806111719361116760008201516000860190611133565b0151910190611140565b565b906111808160409361114d565b0190565b60200190565b906111a76111a161119a84611120565b8093611124565b9261112d565b9060005b8181106111b85750505090565b9091926111d16111cb6001928651611173565b94611184565b91019190916111ab565b61124791608061122461121261120060a08501600087015186820360008801526110ef565b602086015185820360208701526110ef565b6040850151848203604086015261118a565b9261123760608201516060850190611133565b01519060808184039101526110ef565b90565b9161126e92611261604082019360008301906110d5565b60208184039101526111db565b90565b91602061129392949361128c60408201966000830190610853565b0190610853565b565b9160206112b79294936112b060408201966000830190610846565b0190610853565b565b6112c2816103e1565b036112c957565b600080fd5b905051906112db826112b9565b565b906020828203126112f7576112f4916000016112ce565b90565b6100a0565b90959492611348946113376113419261132d60809661132360a088019c6000890190610846565b6020870190610846565b6040850190610853565b6060830190610846565b0190610853565b565b94929394919091611359610fd7565b50611362610b1a565b5061136b610fb3565b95866002018261137a91610bb9565b61138390610ffb565b928760030183611392916106bd565b8561139c91610709565b6113a590610ffb565b9088600301846113b4916106bd565b906113be91610709565b6113c790610ffb565b9087926113d2610095565b93849360208501936113e394611008565b6020820181038252036113f6908261029b565b8290849087600061140690611063565b919261141194611af5565b8660000161141e9061108e565b6114279061109b565b6320487ded9083918390611439610095565b93849261144684936107f8565b835260048301916114569261124a565b03815a93602094fa9081156116785760009161164a575b50968761148b61148561147f306107ec565b3161018b565b9161018b565b1161161a576114a161149c866107d4565b6107e0565b90602063095ea7b3926114be6114b96000850161108e565b61109b565b906114dd60008c966114e86114d1610095565b988996879586946107f8565b845260048401611295565b03925af19182156116155760006115119261150c926020956115ea575b500161108e565b61109b565b916396f4e9f96115388a94919486939561154361152c610095565b978896879586946107f8565b84526004840161124a565b03925af19081156115e5576000916115b7575b50948591929390936115b261156b6000611063565b89906115a061159a7fc15fb748c32ba4eb29c1c311e78533f93b4425eab49ea87c6fe4279ecadca04397610926565b97610b9d565b976115a9610095565b958695866112fc565b0390a3565b6115d8915060203d81116115de575b6115d0818361029b565b8101906112dd565b38611556565b503d6115c6565b610893565b61160990863d811161160e575b611601818361029b565b810190610827565b611505565b503d6115f7565b610893565b87611624306107ec565b31611646611630610095565b928392634787a10360e11b845260048401611271565b0390fd5b61166b915060203d8111611671575b611663818361029b565b8101906110b6565b3861146d565b503d611659565b610893565b611686906106f1565b90565b6116923061167d565b6116c46116be7f00000000000000000000000000000000000000000000000000000000000000006100e6565b916100e6565b1480156116f5575b6116d257565b6116da610095565b63703e46dd60e11b8152806116f160048201610151565b0390fd5b506116fe611c05565b61173061172a7f00000000000000000000000000000000000000000000000000000000000000006100e6565b916100e6565b14156116cc565b611740906106d5565b90565b61174c90611737565b90565b611758906106f1565b90565b919061176f90600060208501940190610846565b565b919061179f602061178961178486611743565b61174f565b6352d1902d90611797610095565b9384926107f8565b825281806117af60048201610151565b03915afa809160009261184f575b50156000146117f95750509060016117d357505b565b6117f5906117df610095565b918291634c9c8ce360e01b83526004830161175b565b0390fd5b928361181461180e611809610b52565b6103e1565b916103e1565b0361182957611824929350611c2c565b6117d1565b61184b84611835610095565b918291632a87526960e21b8352600483016103f1565b0390fd5b61187191925060203d8111611878575b611869818361029b565b8101906112dd565b90386117bd565b503d61185f565b6118883061167d565b6118ba6118b47f00000000000000000000000000000000000000000000000000000000000000006100e6565b916100e6565b036118c157565b6118c9610095565b63703e46dd60e11b8152806118e060048201610151565b0390fd5b7ff0c57e16840df040f15088dc2f81fe391c3923bec73e23a9662efc9c229c6a0090565b61191260a06102c4565b90565b606090565b606090565b600090565b61192c611908565b906020808080808661193c611915565b815201611947611915565b81520161195261191a565b81520161195d61191f565b815201611968611915565b81525050565b611976611924565b90565b61198d61198861199292610c36565b61069e565b61018b565b90565b67ffffffffffffffff81116119ad5760208091020190565b610285565b906119c46119bf83611995565b6102c4565b918252565b6119d360406102c4565b90565b600090565b6119e36119c9565b90602080836119f061191f565b8152016119fb6119d6565b81525050565b611a096119db565b90565b60005b828110611a1b57505050565b602090611a26611a01565b8184015201611a0f565b90611a55611a3d836119b2565b92602080611a4b8693611995565b9201910390611a0c565b565b611a6160406102c4565b90565b90611a6e906100e6565b9052565b90611a7c9061018b565b9052565b634e487b7160e01b600052603260045260246000fd5b90611aa082611120565b811015611ab1576020809102010190565b611a80565b611ac060206102c4565b90565b90565b611ada611ad5611adf92611ac3565b61069e565b61018b565b90565b611aec60a06102c4565b90565b52565b52565b90611beb611b8695611b95611bf494611b70611bfd9897611b1461196e565b50611b4a611b2a611b256001611979565b611a30565b9791611b41611b37611a57565b9360008501611a64565b60208301611a72565b611b6a8791600090611b64611b5e83610c61565b85611a96565b52610c61565b90611a96565b5150611b7a610095565b9889916020830161175b565b6020820181038252038861029b565b91611be2611bc2622dc6c0611bbd611bb4611bae611ab6565b92611ac6565b60008301611a72565b611d21565b9593611bd9611bcf611ae2565b9960008b01611aef565b60208901611aef565b60408701611af2565b60608501611a64565b60808301611aef565b90565b600090565b611c0d611c00565b50611c296000611c23611c1e610b52565b611d66565b01610ffb565b90565b90611c3682611d69565b81611c617fbc7cd75a20ee27fd9adebab32041f755214dbc6bffa90cc0225b39da2e5c2d3b916106fd565b90611c6a610095565b80611c7481610151565b0390a2611c80816110e2565b611c93611c8d6000610c61565b9161018b565b11600014611ca857611ca491611e47565b505b565b5050611cb2611dc7565b611ca6565b606090565b90565b63ffffffff60e01b1690565b611cdf611cda611ce492611cbc565b6107f8565b611cbf565b90565b611cf46397a657c9611ccb565b90565b90600080611d09930151910190611140565b565b9190611d1f90600060208501940190611cf7565b565b611d63600491611d2f611cb7565b50611d54611d3b611ce7565b91611d44610095565b9485936020850190815201611d0b565b6020820181038252038261029b565b90565b90565b803b611d7e611d786000610c61565b9161018b565b14611da157611d9f906000611d99611d94610b52565b611d66565b01610745565b565b611dc390611dad610095565b918291634c9c8ce360e01b83526004830161175b565b0390fd5b34611ddb611dd56000610c61565b9161018b565b11611de257565b611dea610095565b63b398979f60e01b815280611e0160048201610151565b0390fd5b90611e17611e12836102d9565b6102c4565b918252565b3d600014611e3957611e2d3d611e05565b903d6000602084013e5b565b611e41611cb7565b90611e37565b600080611e7493611e56611cb7565b508390602081019051915af490611e6b611e1c565b90919091611e77565b90565b90611e8b90611e84611cb7565b50156107fe565b600014611e985750611f05565b611ea1826110e2565b611eb4611eae6000610c61565b9161018b565b1480611ee9575b611ec3575090565b611ee590611ecf610095565b918291639996b31560e01b83526004830161175b565b0390fd5b50803b611eff611ef96000610c61565b9161018b565b14611ebb565b611f0e816110e2565b611f21611f1b6000610c61565b9161018b565b11600014611f3157805190602001fd5b611f39610095565b630a12f52160e11b815280611f5060048201610151565b0390fdfea264697066735822122070fabaf64a8c036c465b360c2906de7d1dc2d06b0dd7dc7fee536f2d4bb32c5964736f6c63430008190033",
  "devdoc": {
    "errors": {
      "AddressEmptyCode(address)": [
        {
          "details": "There's no code at `target` (it is not a contract)."
        }
      ],
      "ERC1967InvalidImplementation(address)": [
        {
          "details": "The `implementation` of the proxy is invalid."
        }
      ],
      "ERC1967NonPayable()": [
        {
          "details": "An upgrade function sees `msg.value > 0` that may be lost."
        }
      ],
      "FailedInnerCall()": [
        {
          "details": "A call to an address target failed. The target may have reverted."
        }
      ],
      "InvalidInitialization()": [
        {
          "details": "The contract is already initialized."
        }
      ],
      "NotInitializing()": [
        {
          "details": "The contract is not initializing."
        }
      ],
      "UUPSUnauthorizedCallContext()": [
        {
          "details": "The call is from an unauthorized context."
        }
      ],
      "UUPSUnsupportedProxiableUUID(bytes32)": [
        {
          "details": "The storage `slot` is unsupported as a UUID."
        }
      ]
    },
    "events": {
      "Initialized(uint64)": {
        "details": "Triggered when the contract has been initialized or reinitialized."
      },
      "Upgraded(address)": {
        "details": "Emitted when the implementation is upgraded."
      }
    },
    "kind": "dev",
    "methods": {
      "proxiableUUID()": {
        "details": "Implementation of the ERC1822 {proxiableUUID} function. This returns the storage slot used by the implementation. It is used to validate the implementation's compatibility when performing an upgrade. IMPORTANT: A proxy pointing at a proxiable contract should not be considered proxiable itself, because this risks bricking a proxy that upgrades to it, by delegating to itself until out of gas. Thus it is critical that this function revert if invoked through a proxy. This is guaranteed by the `notDelegated` modifier."
      },
      "swap(address,address,uint256,uint256,uint256,uint256,uint256,uint256)": {
        "details": "a for amoy, b for base sepolia, c for fuji"
      },
      "upgradeToAndCall(address,bytes)": {
        "custom:oz-upgrades-unsafe-allow-reachable": "delegatecall",
        "details": "Upgrade the implementation of the proxy to `newImplementation`, and subsequently execute the function call encoded in `data`. Calls {_authorizeUpgrade}. Emits an {Upgraded} event."
      }
    },
    "version": 1
  },
  "userdoc": {
    "kind": "user",
    "methods": {},
    "version": 1
  },
  "storageLayout": {
    "storage": [],
    "types": null
  }
}