{
  "address": "0xB6B9d9F285e0473856d6dEe8CF8daCcc2cC5fEf8",
  "abi": [
    {
      "inputs": [
        {
          "internalType": "address",
          "name": "target",
          "type": "address"
        }
      ],
      "name": "AddressEmptyCode",
      "type": "error"
    },
    {
      "inputs": [
        {
          "internalType": "uint64",
          "name": "destinationChainSelector",
          "type": "uint64"
        }
      ],
      "name": "DestinationChainNotAllowlisted",
      "type": "error"
    },
    {
      "inputs": [
        {
          "internalType": "address",
          "name": "implementation",
          "type": "address"
        }
      ],
      "name": "ERC1967InvalidImplementation",
      "type": "error"
    },
    {
      "inputs": [],
      "name": "ERC1967NonPayable",
      "type": "error"
    },
    {
      "inputs": [],
      "name": "FailedInnerCall",
      "type": "error"
    },
    {
      "inputs": [
        {
          "internalType": "address",
          "name": "owner",
          "type": "address"
        },
        {
          "internalType": "address",
          "name": "target",
          "type": "address"
        },
        {
          "internalType": "uint256",
          "name": "value",
          "type": "uint256"
        }
      ],
      "name": "FailedToWithdrawEth",
      "type": "error"
    },
    {
      "inputs": [],
      "name": "InvalidInitialization",
      "type": "error"
    },
    {
      "inputs": [],
      "name": "InvalidReceiverAddress",
      "type": "error"
    },
    {
      "inputs": [
        {
          "internalType": "uint256",
          "name": "currentBalance",
          "type": "uint256"
        },
        {
          "internalType": "uint256",
          "name": "calculatedFees",
          "type": "uint256"
        }
      ],
      "name": "NotEnoughBalance",
      "type": "error"
    },
    {
      "inputs": [],
      "name": "NotInitializing",
      "type": "error"
    },
    {
      "inputs": [],
      "name": "NothingToWithdraw",
      "type": "error"
    },
    {
      "inputs": [],
      "name": "UUPSUnauthorizedCallContext",
      "type": "error"
    },
    {
      "inputs": [
        {
          "internalType": "bytes32",
          "name": "slot",
          "type": "bytes32"
        }
      ],
      "name": "UUPSUnsupportedProxiableUUID",
      "type": "error"
    },
    {
      "anonymous": false,
      "inputs": [
        {
          "indexed": false,
          "internalType": "uint64",
          "name": "version",
          "type": "uint64"
        }
      ],
      "name": "Initialized",
      "type": "event"
    },
    {
      "anonymous": false,
      "inputs": [
        {
          "indexed": false,
          "internalType": "uint256",
          "name": "feeAmount",
          "type": "uint256"
        }
      ],
      "name": "InvokeSwap",
      "type": "event"
    },
    {
      "anonymous": false,
      "inputs": [
        {
          "indexed": true,
          "internalType": "bytes32",
          "name": "messageId",
          "type": "bytes32"
        },
        {
          "indexed": true,
          "internalType": "uint64",
          "name": "destinationChainSelector",
          "type": "uint64"
        },
        {
          "indexed": false,
          "internalType": "address",
          "name": "receiver",
          "type": "address"
        },
        {
          "indexed": false,
          "internalType": "address",
          "name": "token",
          "type": "address"
        },
        {
          "indexed": false,
          "internalType": "uint256",
          "name": "tokenAmount",
          "type": "uint256"
        },
        {
          "indexed": false,
          "internalType": "address",
          "name": "feeToken",
          "type": "address"
        },
        {
          "indexed": false,
          "internalType": "uint256",
          "name": "fees",
          "type": "uint256"
        }
      ],
      "name": "TokensTransferred",
      "type": "event"
    },
    {
      "anonymous": false,
      "inputs": [
        {
          "indexed": true,
          "internalType": "address",
          "name": "implementation",
          "type": "address"
        }
      ],
      "name": "Upgraded",
      "type": "event"
    },
    {
      "inputs": [],
      "name": "UPGRADE_INTERFACE_VERSION",
      "outputs": [
        {
          "internalType": "string",
          "name": "",
          "type": "string"
        }
      ],
      "stateMutability": "view",
      "type": "function"
    },
    {
      "inputs": [
        {
          "internalType": "contract IRouterClient",
          "name": "router_",
          "type": "address"
        },
        {
          "internalType": "uint64",
          "name": "chainASelector_",
          "type": "uint64"
        },
        {
          "internalType": "uint64",
          "name": "chainBSelector_",
          "type": "uint64"
        },
        {
          "internalType": "uint64",
          "name": "chainCSelector_",
          "type": "uint64"
        }
      ],
      "name": "initialize",
      "outputs": [],
      "stateMutability": "nonpayable",
      "type": "function"
    },
    {
      "inputs": [],
      "name": "proxiableUUID",
      "outputs": [
        {
          "internalType": "bytes32",
          "name": "",
          "type": "bytes32"
        }
      ],
      "stateMutability": "view",
      "type": "function"
    },
    {
      "inputs": [
        {
          "internalType": "uint64",
          "name": "chainSelector",
          "type": "uint64"
        },
        {
          "internalType": "address",
          "name": "LynkMessager",
          "type": "address"
        }
      ],
      "name": "setChainMessager",
      "outputs": [],
      "stateMutability": "nonpayable",
      "type": "function"
    },
    {
      "inputs": [
        {
          "internalType": "uint64",
          "name": "chainSelector",
          "type": "uint64"
        },
        {
          "internalType": "address",
          "name": "originToken",
          "type": "address"
        },
        {
          "internalType": "address",
          "name": "destToken",
          "type": "address"
        }
      ],
      "name": "setTokenMap",
      "outputs": [],
      "stateMutability": "nonpayable",
      "type": "function"
    },
    {
      "inputs": [
        {
          "internalType": "address",
          "name": "tokenIn",
          "type": "address"
        },
        {
          "internalType": "address",
          "name": "tokenOut",
          "type": "address"
        },
        {
          "internalType": "uint256",
          "name": "amountA",
          "type": "uint256"
        },
        {
          "internalType": "uint256",
          "name": "minA",
          "type": "uint256"
        },
        {
          "internalType": "uint256",
          "name": "amountB",
          "type": "uint256"
        },
        {
          "internalType": "uint256",
          "name": "minB",
          "type": "uint256"
        },
        {
          "internalType": "uint256",
          "name": "amountC",
          "type": "uint256"
        },
        {
          "internalType": "uint256",
          "name": "minC",
          "type": "uint256"
        }
      ],
      "name": "swap",
      "outputs": [],
      "stateMutability": "nonpayable",
      "type": "function"
    },
    {
      "inputs": [
        {
          "internalType": "address",
          "name": "newImplementation",
          "type": "address"
        },
        {
          "internalType": "bytes",
          "name": "data",
          "type": "bytes"
        }
      ],
      "name": "upgradeToAndCall",
      "outputs": [],
      "stateMutability": "payable",
      "type": "function"
    }
  ],
  "transactionHash": "0x68672db4a4454bd6cdd2fc156c7826a5decba89f06dbdfcd403ed28dc873843b",
  "args": [],
  "numDeployments": 4,
  "solcInputHash": "5bc3f012efc04605d7823504699796a2",
  "bytecode": "0x60a06040523073ffffffffffffffffffffffffffffffffffffffff1660809073ffffffffffffffffffffffffffffffffffffffff16815250348015604257600080fd5b50608051611e2761006c60003960008181610ac401528181610b190152610ccc0152611e276000f3fe6080604052600436106100705760003560e01c806352d1902d1161004e57806352d1902d146100e3578063ad3cb1cc1461010e578063cca2c1c814610139578063df3d33051461016257610070565b8063293618f4146100755780632b81cb8e1461009e5780634f1ef286146100c7575b600080fd5b34801561008157600080fd5b5061009c60048036038101906100979190611381565b61018b565b005b3480156100aa57600080fd5b506100c560048036038101906100c0919061140a565b610238565b005b6100e160048036038101906100dc9190611606565b610320565b005b3480156100ef57600080fd5b506100f861033f565b604051610105919061167b565b60405180910390f35b34801561011a57600080fd5b50610123610372565b6040516101309190611715565b60405180910390f35b34801561014557600080fd5b50610160600480360381019061015b9190611737565b6103ab565b005b34801561016e57600080fd5b50610189600480360381019061018491906117b5565b610424565b005b600061019561067e565b9050818160030160008667ffffffffffffffff16815260200190815260200160002060008573ffffffffffffffffffffffffffffffffffffffff1673ffffffffffffffffffffffffffffffffffffffff16815260200190815260200160002060006101000a81548173ffffffffffffffffffffffffffffffffffffffff021916908373ffffffffffffffffffffffffffffffffffffffff16021790555050505050565b600061024261067e565b9050600061026b8260000160149054906101000a900467ffffffffffffffff168b8b8b8b6106a6565b905060006102948360010160009054906101000a900467ffffffffffffffff168c8c8a8a6106a6565b905060006102bd8460010160089054906101000a900467ffffffffffffffff168d8d89896106a6565b905060008183856102ce919061184b565b6102d8919061184b565b90507fa3c013c18468127d3421d1e049e45ab3dc5ca6ea8cc2093c02020b60ec26356781604051610309919061188e565b60405180910390a150505050505050505050505050565b610328610ac2565b61033182610ba8565b61033b8282610bab565b5050565b6000610349610cca565b7f360894a13ba1a3210667c828492db98dca3e2076cc3735a920a3ca505d382bbc60001b905090565b6040518060400160405280600581526020017f352e302e3000000000000000000000000000000000000000000000000000000081525081565b60006103b561067e565b9050818160020160008567ffffffffffffffff1667ffffffffffffffff16815260200190815260200160002060006101000a81548173ffffffffffffffffffffffffffffffffffffffff021916908373ffffffffffffffffffffffffffffffffffffffff160217905550505050565b600061042e610d51565b905060008160000160089054906101000a900460ff1615905060008260000160009054906101000a900467ffffffffffffffff1690506000808267ffffffffffffffff1614801561047c5750825b9050600060018367ffffffffffffffff161480156104b1575060003073ffffffffffffffffffffffffffffffffffffffff163b145b9050811580156104bf575080155b156104f6576040517ff92ee8a900000000000000000000000000000000000000000000000000000000815260040160405180910390fd5b60018560000160006101000a81548167ffffffffffffffff021916908367ffffffffffffffff16021790555083156105465760018560000160086101000a81548160ff0219169083151502179055505b600061055061067e565b9050898160000160006101000a81548173ffffffffffffffffffffffffffffffffffffffff021916908373ffffffffffffffffffffffffffffffffffffffff160217905550888160000160146101000a81548167ffffffffffffffff021916908367ffffffffffffffff160217905550878160010160006101000a81548167ffffffffffffffff021916908367ffffffffffffffff160217905550868160010160086101000a81548167ffffffffffffffff021916908367ffffffffffffffff1602179055505083156106735760008560000160086101000a81548160ff0219169083151502179055507fc7f505b2f371ae2175ee4913f4499e1f2633a7b5936321eed1cdaeb6115181d2600160405161066a91906118ee565b60405180910390a15b505050505050505050565b60007f42631c0a284ed7d4e8004e5fc9bdf44dbbde6ac8d81ad52470bb1ab538a9aa00905090565b6000806106b161067e565b905060008160020160008967ffffffffffffffff1667ffffffffffffffff16815260200190815260200160002060009054906101000a900473ffffffffffffffffffffffffffffffffffffffff16905060008260030160008a67ffffffffffffffff16815260200190815260200160002060008973ffffffffffffffffffffffffffffffffffffffff1673ffffffffffffffffffffffffffffffffffffffff16815260200190815260200160002060009054906101000a900473ffffffffffffffffffffffffffffffffffffffff168360030160008b67ffffffffffffffff16815260200190815260200160002060008973ffffffffffffffffffffffffffffffffffffffff1673ffffffffffffffffffffffffffffffffffffffff16815260200190815260200160002060009054906101000a900473ffffffffffffffffffffffffffffffffffffffff1687876040516020016108129493929190611918565b60405160208183030381529060405290506000610833838a89600086610d79565b90508360000160009054906101000a900473ffffffffffffffffffffffffffffffffffffffff1673ffffffffffffffffffffffffffffffffffffffff166320487ded8b836040518363ffffffff1660e01b8152600401610894929190611b48565b602060405180830381865afa1580156108b1573d6000803e3d6000fd5b505050506040513d601f19601f820116820180604052508101906108d59190611b8d565b94504785111561091e5747856040517f8f0f4206000000000000000000000000000000000000000000000000000000008152600401610915929190611bba565b60405180910390fd5b8873ffffffffffffffffffffffffffffffffffffffff1663095ea7b38560000160009054906101000a900473ffffffffffffffffffffffffffffffffffffffff16896040518363ffffffff1660e01b815260040161097d929190611be3565b6020604051808303816000875af115801561099c573d6000803e3d6000fd5b505050506040513d601f19601f820116820180604052508101906109c09190611c44565b5060008460000160009054906101000a900473ffffffffffffffffffffffffffffffffffffffff1673ffffffffffffffffffffffffffffffffffffffff166396f4e9f9878d856040518463ffffffff1660e01b8152600401610a23929190611b48565b60206040518083038185885af1158015610a41573d6000803e3d6000fd5b50505050506040513d601f19601f82011682018060405250810190610a669190611c9d565b90508a67ffffffffffffffff16817fc15fb748c32ba4eb29c1c311e78533f93b4425eab49ea87c6fe4279ecadca043868d8c60008c604051610aac959493929190611cca565b60405180910390a3505050505095945050505050565b7f000000000000000000000000000000000000000000000000000000000000000073ffffffffffffffffffffffffffffffffffffffff163073ffffffffffffffffffffffffffffffffffffffff161480610b6f57507f000000000000000000000000000000000000000000000000000000000000000073ffffffffffffffffffffffffffffffffffffffff16610b56610ea5565b73ffffffffffffffffffffffffffffffffffffffff1614155b15610ba6576040517fe07c8dba00000000000000000000000000000000000000000000000000000000815260040160405180910390fd5b565b50565b8173ffffffffffffffffffffffffffffffffffffffff166352d1902d6040518163ffffffff1660e01b8152600401602060405180830381865afa925050508015610c1357506040513d601f19601f82011682018060405250810190610c109190611c9d565b60015b610c5457816040517f4c9c8ce3000000000000000000000000000000000000000000000000000000008152600401610c4b9190611d1d565b60405180910390fd5b7f360894a13ba1a3210667c828492db98dca3e2076cc3735a920a3ca505d382bbc60001b8114610cbb57806040517faa1d49a4000000000000000000000000000000000000000000000000000000008152600401610cb2919061167b565b60405180910390fd5b610cc58383610efc565b505050565b7f000000000000000000000000000000000000000000000000000000000000000073ffffffffffffffffffffffffffffffffffffffff163073ffffffffffffffffffffffffffffffffffffffff1614610d4f576040517fe07c8dba00000000000000000000000000000000000000000000000000000000815260040160405180910390fd5b565b60007ff0c57e16840df040f15088dc2f81fe391c3923bec73e23a9662efc9c229c6a00905090565b610d8161125a565b6000600167ffffffffffffffff811115610d9e57610d9d6114db565b5b604051908082528060200260200182016040528015610dd757816020015b610dc461129f565b815260200190600190039081610dbc5790505b50905060405180604001604052808773ffffffffffffffffffffffffffffffffffffffff1681526020018681525081600081518110610e1957610e18611d38565b5b60200260200101819052506040518060a0016040528088604051602001610e409190611d1d565b60405160208183030381529060405281526020018481526020018281526020018573ffffffffffffffffffffffffffffffffffffffff168152602001610e966040518060200160405280622dc6c0815250610f6f565b81525091505095945050505050565b6000610ed37f360894a13ba1a3210667c828492db98dca3e2076cc3735a920a3ca505d382bbc60001b610fee565b60000160009054906101000a900473ffffffffffffffffffffffffffffffffffffffff16905090565b610f0582610ff8565b8173ffffffffffffffffffffffffffffffffffffffff167fbc7cd75a20ee27fd9adebab32041f755214dbc6bffa90cc0225b39da2e5c2d3b60405160405180910390a2600081511115610f6257610f5c82826110c5565b50610f6b565b610f6a611149565b5b5050565b60606397a657c960e01b82604051602401610f8a9190611d83565b604051602081830303815290604052907bffffffffffffffffffffffffffffffffffffffffffffffffffffffff19166020820180517bffffffffffffffffffffffffffffffffffffffffffffffffffffffff83818316178352505050509050919050565b6000819050919050565b60008173ffffffffffffffffffffffffffffffffffffffff163b0361105457806040517f4c9c8ce300000000000000000000000000000000000000000000000000000000815260040161104b9190611d1d565b60405180910390fd5b806110817f360894a13ba1a3210667c828492db98dca3e2076cc3735a920a3ca505d382bbc60001b610fee565b60000160006101000a81548173ffffffffffffffffffffffffffffffffffffffff021916908373ffffffffffffffffffffffffffffffffffffffff16021790555050565b60606000808473ffffffffffffffffffffffffffffffffffffffff16846040516110ef9190611dda565b600060405180830381855af49150503d806000811461112a576040519150601f19603f3d011682016040523d82523d6000602084013e61112f565b606091505b509150915061113f858383611186565b9250505092915050565b6000341115611184576040517fb398979f00000000000000000000000000000000000000000000000000000000815260040160405180910390fd5b565b60608261119b5761119682611215565b61120d565b600082511480156111c3575060008473ffffffffffffffffffffffffffffffffffffffff163b145b1561120557836040517f9996b3150000000000000000000000000000000000000000000000000000000081526004016111fc9190611d1d565b60405180910390fd5b81905061120e565b5b9392505050565b6000815111156112285780518082602001fd5b6040517f1425ea4200000000000000000000000000000000000000000000000000000000815260040160405180910390fd5b6040518060a00160405280606081526020016060815260200160608152602001600073ffffffffffffffffffffffffffffffffffffffff168152602001606081525090565b6040518060400160405280600073ffffffffffffffffffffffffffffffffffffffff168152602001600081525090565b6000604051905090565b600080fd5b600080fd5b600067ffffffffffffffff82169050919050565b611300816112e3565b811461130b57600080fd5b50565b60008135905061131d816112f7565b92915050565b600073ffffffffffffffffffffffffffffffffffffffff82169050919050565b600061134e82611323565b9050919050565b61135e81611343565b811461136957600080fd5b50565b60008135905061137b81611355565b92915050565b60008060006060848603121561139a576113996112d9565b5b60006113a88682870161130e565b93505060206113b98682870161136c565b92505060406113ca8682870161136c565b9150509250925092565b6000819050919050565b6113e7816113d4565b81146113f257600080fd5b50565b600081359050611404816113de565b92915050565b600080600080600080600080610100898b03121561142b5761142a6112d9565b5b60006114398b828c0161136c565b985050602061144a8b828c0161136c565b975050604061145b8b828c016113f5565b965050606061146c8b828c016113f5565b955050608061147d8b828c016113f5565b94505060a061148e8b828c016113f5565b93505060c061149f8b828c016113f5565b92505060e06114b08b828c016113f5565b9150509295985092959890939650565b600080fd5b600080fd5b6000601f19601f8301169050919050565b7f4e487b7100000000000000000000000000000000000000000000000000000000600052604160045260246000fd5b611513826114ca565b810181811067ffffffffffffffff82111715611532576115316114db565b5b80604052505050565b60006115456112cf565b9050611551828261150a565b919050565b600067ffffffffffffffff821115611571576115706114db565b5b61157a826114ca565b9050602081019050919050565b82818337600083830152505050565b60006115a96115a484611556565b61153b565b9050828152602081018484840111156115c5576115c46114c5565b5b6115d0848285611587565b509392505050565b600082601f8301126115ed576115ec6114c0565b5b81356115fd848260208601611596565b91505092915050565b6000806040838503121561161d5761161c6112d9565b5b600061162b8582860161136c565b925050602083013567ffffffffffffffff81111561164c5761164b6112de565b5b611658858286016115d8565b9150509250929050565b6000819050919050565b61167581611662565b82525050565b6000602082019050611690600083018461166c565b92915050565b600081519050919050565b600082825260208201905092915050565b60005b838110156116d05780820151818401526020810190506116b5565b60008484015250505050565b60006116e782611696565b6116f181856116a1565b93506117018185602086016116b2565b61170a816114ca565b840191505092915050565b6000602082019050818103600083015261172f81846116dc565b905092915050565b6000806040838503121561174e5761174d6112d9565b5b600061175c8582860161130e565b925050602061176d8582860161136c565b9150509250929050565b600061178282611343565b9050919050565b61179281611777565b811461179d57600080fd5b50565b6000813590506117af81611789565b92915050565b600080600080608085870312156117cf576117ce6112d9565b5b60006117dd878288016117a0565b94505060206117ee8782880161130e565b93505060406117ff8782880161130e565b92505060606118108782880161130e565b91505092959194509250565b7f4e487b7100000000000000000000000000000000000000000000000000000000600052601160045260246000fd5b6000611856826113d4565b9150611861836113d4565b92508282019050808211156118795761187861181c565b5b92915050565b611888816113d4565b82525050565b60006020820190506118a3600083018461187f565b92915050565b6000819050919050565b6000819050919050565b60006118d86118d36118ce846118a9565b6118b3565b6112e3565b9050919050565b6118e8816118bd565b82525050565b600060208201905061190360008301846118df565b92915050565b61191281611343565b82525050565b600060808201905061192d6000830187611909565b61193a6020830186611909565b611947604083018561187f565b611954606083018461187f565b95945050505050565b611966816112e3565b82525050565b600081519050919050565b600082825260208201905092915050565b60006119938261196c565b61199d8185611977565b93506119ad8185602086016116b2565b6119b6816114ca565b840191505092915050565b600081519050919050565b600082825260208201905092915050565b6000819050602082019050919050565b6119f681611343565b82525050565b611a05816113d4565b82525050565b604082016000820151611a2160008501826119ed565b506020820151611a3460208501826119fc565b50505050565b6000611a468383611a0b565b60408301905092915050565b6000602082019050919050565b6000611a6a826119c1565b611a7481856119cc565b9350611a7f836119dd565b8060005b83811015611ab0578151611a978882611a3a565b9750611aa283611a52565b925050600181019050611a83565b5085935050505092915050565b600060a0830160008301518482036000860152611ada8282611988565b91505060208301518482036020860152611af48282611988565b91505060408301518482036040860152611b0e8282611a5f565b9150506060830151611b2360608601826119ed565b5060808301518482036080860152611b3b8282611988565b9150508091505092915050565b6000604082019050611b5d600083018561195d565b8181036020830152611b6f8184611abd565b90509392505050565b600081519050611b87816113de565b92915050565b600060208284031215611ba357611ba26112d9565b5b6000611bb184828501611b78565b91505092915050565b6000604082019050611bcf600083018561187f565b611bdc602083018461187f565b9392505050565b6000604082019050611bf86000830185611909565b611c05602083018461187f565b9392505050565b60008115159050919050565b611c2181611c0c565b8114611c2c57600080fd5b50565b600081519050611c3e81611c18565b92915050565b600060208284031215611c5a57611c596112d9565b5b6000611c6884828501611c2f565b91505092915050565b611c7a81611662565b8114611c8557600080fd5b50565b600081519050611c9781611c71565b92915050565b600060208284031215611cb357611cb26112d9565b5b6000611cc184828501611c88565b91505092915050565b600060a082019050611cdf6000830188611909565b611cec6020830187611909565b611cf9604083018661187f565b611d066060830185611909565b611d13608083018461187f565b9695505050505050565b6000602082019050611d326000830184611909565b92915050565b7f4e487b7100000000000000000000000000000000000000000000000000000000600052603260045260246000fd5b602082016000820151611d7d60008501826119fc565b50505050565b6000602082019050611d986000830184611d67565b92915050565b600081905092915050565b6000611db48261196c565b611dbe8185611d9e565b9350611dce8185602086016116b2565b80840191505092915050565b6000611de68284611da9565b91508190509291505056fea26469706673582212203c17c22834d58e3d59c6cf45f86f1596814ac13d465af800e95d055bbb54598f64736f6c63430008190033",
  "devdoc": {
    "errors": {
      "AddressEmptyCode(address)": [
        {
          "details": "There's no code at `target` (it is not a contract)."
        }
      ],
      "ERC1967InvalidImplementation(address)": [
        {
          "details": "The `implementation` of the proxy is invalid."
        }
      ],
      "ERC1967NonPayable()": [
        {
          "details": "An upgrade function sees `msg.value > 0` that may be lost."
        }
      ],
      "FailedInnerCall()": [
        {
          "details": "A call to an address target failed. The target may have reverted."
        }
      ],
      "InvalidInitialization()": [
        {
          "details": "The contract is already initialized."
        }
      ],
      "NotInitializing()": [
        {
          "details": "The contract is not initializing."
        }
      ],
      "UUPSUnauthorizedCallContext()": [
        {
          "details": "The call is from an unauthorized context."
        }
      ],
      "UUPSUnsupportedProxiableUUID(bytes32)": [
        {
          "details": "The storage `slot` is unsupported as a UUID."
        }
      ]
    },
    "events": {
      "Initialized(uint64)": {
        "details": "Triggered when the contract has been initialized or reinitialized."
      },
      "Upgraded(address)": {
        "details": "Emitted when the implementation is upgraded."
      }
    },
    "kind": "dev",
    "methods": {
      "proxiableUUID()": {
        "details": "Implementation of the ERC1822 {proxiableUUID} function. This returns the storage slot used by the implementation. It is used to validate the implementation's compatibility when performing an upgrade. IMPORTANT: A proxy pointing at a proxiable contract should not be considered proxiable itself, because this risks bricking a proxy that upgrades to it, by delegating to itself until out of gas. Thus it is critical that this function revert if invoked through a proxy. This is guaranteed by the `notDelegated` modifier."
      },
      "swap(address,address,uint256,uint256,uint256,uint256,uint256,uint256)": {
        "details": "a for amoy, b for base sepolia, c for fuji"
      },
      "upgradeToAndCall(address,bytes)": {
        "custom:oz-upgrades-unsafe-allow-reachable": "delegatecall",
        "details": "Upgrade the implementation of the proxy to `newImplementation`, and subsequently execute the function call encoded in `data`. Calls {_authorizeUpgrade}. Emits an {Upgraded} event."
      }
    },
    "version": 1
  },
  "userdoc": {
    "kind": "user",
    "methods": {},
    "version": 1
  },
  "storageLayout": {
    "storage": [],
    "types": null
  }
}