{
  "address": "0xDA256Fbda650d091f34fCc46Dd0234df0EA31650",
  "abi": [
    {
      "inputs": [
        {
          "internalType": "address",
          "name": "target",
          "type": "address"
        }
      ],
      "name": "AddressEmptyCode",
      "type": "error"
    },
    {
      "inputs": [
        {
          "internalType": "address",
          "name": "implementation",
          "type": "address"
        }
      ],
      "name": "ERC1967InvalidImplementation",
      "type": "error"
    },
    {
      "inputs": [],
      "name": "ERC1967NonPayable",
      "type": "error"
    },
    {
      "inputs": [],
      "name": "FailedInnerCall",
      "type": "error"
    },
    {
      "inputs": [],
      "name": "InvalidInitialization",
      "type": "error"
    },
    {
      "inputs": [
        {
          "internalType": "address",
          "name": "router",
          "type": "address"
        }
      ],
      "name": "InvalidRouter",
      "type": "error"
    },
    {
      "inputs": [],
      "name": "NotInitializing",
      "type": "error"
    },
    {
      "inputs": [],
      "name": "UUPSUnauthorizedCallContext",
      "type": "error"
    },
    {
      "inputs": [
        {
          "internalType": "bytes32",
          "name": "slot",
          "type": "bytes32"
        }
      ],
      "name": "UUPSUnsupportedProxiableUUID",
      "type": "error"
    },
    {
      "anonymous": false,
      "inputs": [
        {
          "indexed": false,
          "internalType": "uint64",
          "name": "version",
          "type": "uint64"
        }
      ],
      "name": "Initialized",
      "type": "event"
    },
    {
      "anonymous": false,
      "inputs": [
        {
          "indexed": false,
          "internalType": "bytes32",
          "name": "messageId",
          "type": "bytes32"
        },
        {
          "indexed": false,
          "internalType": "address",
          "name": "fromToken",
          "type": "address"
        },
        {
          "indexed": false,
          "internalType": "uint256",
          "name": "fromAmount",
          "type": "uint256"
        },
        {
          "indexed": false,
          "internalType": "address",
          "name": "toToken",
          "type": "address"
        },
        {
          "indexed": false,
          "internalType": "uint256",
          "name": "toAmount",
          "type": "uint256"
        }
      ],
      "name": "OrderFilled",
      "type": "event"
    },
    {
      "anonymous": false,
      "inputs": [
        {
          "indexed": false,
          "internalType": "bytes32",
          "name": "messageId",
          "type": "bytes32"
        },
        {
          "indexed": false,
          "internalType": "bytes",
          "name": "data",
          "type": "bytes"
        }
      ],
      "name": "OrderPending",
      "type": "event"
    },
    {
      "anonymous": false,
      "inputs": [
        {
          "indexed": false,
          "internalType": "bytes32",
          "name": "messageId",
          "type": "bytes32"
        },
        {
          "indexed": false,
          "internalType": "address",
          "name": "fromToken",
          "type": "address"
        },
        {
          "indexed": false,
          "internalType": "uint256",
          "name": "fromAmount",
          "type": "uint256"
        },
        {
          "indexed": false,
          "internalType": "address",
          "name": "toToken",
          "type": "address"
        }
      ],
      "name": "OrderWaiting",
      "type": "event"
    },
    {
      "anonymous": false,
      "inputs": [
        {
          "indexed": true,
          "internalType": "address",
          "name": "implementation",
          "type": "address"
        }
      ],
      "name": "Upgraded",
      "type": "event"
    },
    {
      "inputs": [],
      "name": "UPGRADE_INTERFACE_VERSION",
      "outputs": [
        {
          "internalType": "string",
          "name": "",
          "type": "string"
        }
      ],
      "stateMutability": "view",
      "type": "function"
    },
    {
      "inputs": [
        {
          "components": [
            {
              "internalType": "bytes32",
              "name": "messageId",
              "type": "bytes32"
            },
            {
              "internalType": "uint64",
              "name": "sourceChainSelector",
              "type": "uint64"
            },
            {
              "internalType": "bytes",
              "name": "sender",
              "type": "bytes"
            },
            {
              "internalType": "bytes",
              "name": "data",
              "type": "bytes"
            },
            {
              "components": [
                {
                  "internalType": "address",
                  "name": "token",
                  "type": "address"
                },
                {
                  "internalType": "uint256",
                  "name": "amount",
                  "type": "uint256"
                }
              ],
              "internalType": "struct Client.EVMTokenAmount[]",
              "name": "destTokenAmounts",
              "type": "tuple[]"
            }
          ],
          "internalType": "struct Client.Any2EVMMessage",
          "name": "message",
          "type": "tuple"
        }
      ],
      "name": "ccipReceive",
      "outputs": [],
      "stateMutability": "nonpayable",
      "type": "function"
    },
    {
      "inputs": [
        {
          "internalType": "bytes",
          "name": "",
          "type": "bytes"
        }
      ],
      "name": "checkUpkeep",
      "outputs": [
        {
          "internalType": "bool",
          "name": "upkeepNeeded",
          "type": "bool"
        },
        {
          "internalType": "bytes",
          "name": "",
          "type": "bytes"
        }
      ],
      "stateMutability": "view",
      "type": "function"
    },
    {
      "inputs": [],
      "name": "getRouter",
      "outputs": [
        {
          "internalType": "address",
          "name": "",
          "type": "address"
        }
      ],
      "stateMutability": "view",
      "type": "function"
    },
    {
      "inputs": [
        {
          "internalType": "address",
          "name": "router_",
          "type": "address"
        },
        {
          "internalType": "contract IUniswapV2Router02",
          "name": "uniswapV2Router_",
          "type": "address"
        }
      ],
      "name": "initialize",
      "outputs": [],
      "stateMutability": "nonpayable",
      "type": "function"
    },
    {
      "inputs": [
        {
          "internalType": "bytes",
          "name": "",
          "type": "bytes"
        }
      ],
      "name": "performUpkeep",
      "outputs": [],
      "stateMutability": "nonpayable",
      "type": "function"
    },
    {
      "inputs": [],
      "name": "proxiableUUID",
      "outputs": [
        {
          "internalType": "bytes32",
          "name": "",
          "type": "bytes32"
        }
      ],
      "stateMutability": "view",
      "type": "function"
    },
    {
      "inputs": [
        {
          "internalType": "bytes4",
          "name": "interfaceId",
          "type": "bytes4"
        }
      ],
      "name": "supportsInterface",
      "outputs": [
        {
          "internalType": "bool",
          "name": "",
          "type": "bool"
        }
      ],
      "stateMutability": "pure",
      "type": "function"
    },
    {
      "inputs": [
        {
          "internalType": "address",
          "name": "newImplementation",
          "type": "address"
        },
        {
          "internalType": "bytes",
          "name": "data",
          "type": "bytes"
        }
      ],
      "name": "upgradeToAndCall",
      "outputs": [],
      "stateMutability": "payable",
      "type": "function"
    }
  ],
  "transactionHash": "0x630ca9d4a15f55e0b6c59170051a3caa0bc15a16736439fff00fea70289a6cc3",
  "args": [],
  "numDeployments": 4,
  "solcInputHash": "699169d1190e180c38f55619a0f33f54",
  "bytecode": "0x60a060405234603957600e6048565b6014603d565b61257a6100b58239608051818181611d5d01528181611dc90152611f6b015261257a90f35b6043565b60405190565b600080fd5b604e6050565b565b60566058565b565b605e6060565b565b60666068565b565b606e60a8565b565b60018060a01b031690565b90565b608d60896091926070565b607b565b6070565b90565b609b90607e565b90565b60a5906094565b90565b60af30609e565b60805256fe60806040526004361015610013575b610788565b61001e6000356100ad565b806301ffc9a7146100a85780634585e33b146100a3578063485cc9551461009e5780634f1ef2861461009957806352d1902d146100945780636e04ff0d1461008f57806385572ffb1461008a578063ad3cb1cc146100855763b0f479a10361000e57610753565b6106fb565b6105d5565b610550565b610491565b610431565b6102cc565b6101ff565b61013f565b60e01c90565b60405190565b600080fd5b600080fd5b600080fd5b63ffffffff60e01b1690565b6100dd816100c8565b036100e457565b600080fd5b905035906100f6826100d4565b565b906020828203126101125761010f916000016100e9565b90565b6100be565b151590565b61012590610117565b9052565b919061013d9060006020850194019061011c565b565b3461016f5761016b61015a6101553660046100f8565b610792565b6101626100b3565b91829182610129565b0390f35b6100b9565b600080fd5b600080fd5b600080fd5b909182601f830112156101bd5781359167ffffffffffffffff83116101b85760200192600183028401116101b357565b61017e565b610179565b610174565b906020828203126101f457600082013567ffffffffffffffff81116101ef576101eb9201610183565b9091565b6100c3565b6100be565b60000190565b3461022e576102186102123660046101c2565b906111d9565b6102206100b3565b8061022a816101f9565b0390f35b6100b9565b60018060a01b031690565b61024790610233565b90565b6102538161023e565b0361025a57565b600080fd5b9050359061026c8261024a565b565b6102779061023e565b90565b6102838161026e565b0361028a57565b600080fd5b9050359061029c8261027a565b565b91906040838203126102c757806102bb6102c4926000860161025f565b9360200161028f565b90565b6100be565b346102fb576102e56102df36600461029e565b90611876565b6102ed6100b3565b806102f7816101f9565b0390f35b6100b9565b600080fd5b601f801991011690565b634e487b7160e01b600052604160045260246000fd5b9061032f90610305565b810190811067ffffffffffffffff82111761034957604052565b61030f565b9061036161035a6100b3565b9283610325565b565b67ffffffffffffffff81116103815761037d602091610305565b0190565b61030f565b90826000939282370152565b909291926103a76103a282610363565b61034e565b938185526020850190828401116103c3576103c192610386565b565b610300565b9080601f830112156103e6578160206103e393359101610392565b90565b610174565b91909160408184031261042c57610405836000830161025f565b92602082013567ffffffffffffffff81116104275761042492016103c8565b90565b6100c3565b6100be565b61044561043f3660046103eb565b906118a2565b61044d6100b3565b80610457816101f9565b0390f35b600091031261046657565b6100be565b90565b6104779061046b565b9052565b919061048f9060006020850194019061046e565b565b346104c1576104a136600461045b565b6104bd6104ac611919565b6104b46100b3565b9182918261047b565b0390f35b6100b9565b5190565b60209181520190565b60005b8381106104e7575050906000910152565b8060209183015181850152016104d6565b6105176105206020936105259361050e816104c6565b938480936104ca565b958691016104d3565b610305565b0190565b9161054d926105406040820193600083019061011c565b60208184039101526104f8565b90565b34610582576105696105633660046101c2565b9061192c565b9061057e6105756100b3565b92839283610529565b0390f35b6100b9565b600080fd5b908160a091031261059a5790565b610587565b906020828203126105d057600082013567ffffffffffffffff81116105cb576105c8920161058c565b90565b6100c3565b6100be565b34610603576105ed6105e836600461059f565b611c0c565b6105f56100b3565b806105ff816101f9565b0390f35b6100b9565b67ffffffffffffffff811161062657610622602091610305565b0190565b61030f565b9061063d61063883610608565b61034e565b918252565b60007f352e302e30000000000000000000000000000000000000000000000000000000910152565b610674600561062b565b9061068160208301610642565b565b61068b61066a565b90565b610696610683565b90565b6106a161068e565b90565b5190565b60209181520190565b6106d06106d96020936106de936106c7816106a4565b938480936106a8565b958691016104d3565b610305565b0190565b6106f891602082019160008184039101526106b1565b90565b3461072b5761070b36600461045b565b610727610716610699565b61071e6100b3565b918291826106e2565b0390f35b6100b9565b6107399061023e565b9052565b919061075190600060208501940190610730565b565b346107835761076336600461045b565b61077f61076e611c1c565b6107766100b3565b9182918261073d565b0390f35b6100b9565b600080fd5b600090565b61079a61078d565b50806107b56107af6385572ffb60e01b6100c8565b916100c8565b149081156107c2575b5090565b90506107dd6107d76301ffc9a760e01b6100c8565b916100c8565b14386107be565b5490565b90565b90565b90565b61080561080061080a926107eb565b6107ee565b6107e8565b90565b60007f4e756c6c50656e64696e67000000000000000000000000000000000000000000910152565b610842600b6020926106a8565b61084b8161080d565b0190565b6108659060208101906000818303910152610835565b90565b90565b61087f61087a61088492610868565b6107ee565b6107e8565b90565b634e487b7160e01b600052601160045260246000fd5b6108ac6108b2919392936107e8565b926107e8565b82039182116108bd57565b610887565b634e487b7160e01b600052603260045260246000fd5b600052602060002090565b6108ec816107e4565b821015610907576108fe6001916108d8565b91020190600090565b6108c2565b1c90565b90565b610923906008610928930261090c565b610910565b90565b906109369154610913565b90565b90565b634e487b7160e01b600052603160045260246000fd5b5490565b600052602060002090565b61096a81610952565b8210156109855761097c600191610956565b91020190600090565b6108c2565b1b90565b919060086109aa9102916109a46000198461098a565b9261098a565b9181191691161790565b6109bd9061046b565b90565b60001c90565b6109cf906109c0565b90565b91906109e86109e36109f0936109b4565b6109c6565b90835461098e565b9055565b600090565b610a0b91610a056109f4565b916109d2565b565b610a1681610952565b8015610a37576001900390610a34610a2e8383610961565b906109f9565b55565b61093c565b90610a46906109b4565b600052602052604060002090565b90565b60ff1690565b610a69610a6e916109c0565b610a57565b90565b610a7b9054610a5d565b90565b60007f6f72646572207472696564000000000000000000000000000000000000000000910152565b610ab3600b6020926106a8565b610abc81610a7e565b0190565b610ad69060208101906000818303910152610aa6565b90565b60001b90565b90610aeb60ff91610ad9565b9181191691161790565b610afe90610117565b90565b90565b90610b19610b14610b2092610af5565b610b01565b8254610adf565b9055565b634e487b7160e01b600052602260045260246000fd5b9060016002830492168015610b5a575b6020831014610b5557565b610b24565b91607f1691610b4a565b60209181520190565b600052602060002090565b9060009291805490610b93610b8c83610b3a565b8094610b64565b91600181169081600014610bec5750600114610baf575b505050565b610bbc9192939450610b6d565b916000925b818410610bd45750500190388080610baa565b60018160209295939554848601520191019290610bc1565b92949550505060ff1916825215156020020190388080610baa565b90610c1191610b78565b90565b90610c34610c2d92610c246100b3565b93848092610c07565b0383610325565b565b610c3f90610c14565b90565b67ffffffffffffffff8111610c5a5760208091020190565b61030f565b90505190610c6c8261024a565b565b90929192610c83610c7e82610c42565b61034e565b9381855260208086019202830192818411610cc057915b838310610ca75750505050565b60208091610cb58486610c5f565b815201920191610c9a565b61017e565b9080601f83011215610ce357816020610ce093519101610c6e565b90565b610174565b610cf1816107e8565b03610cf857565b600080fd5b90505190610d0a82610ce8565b565b610d1590610233565b90565b610d2181610d0c565b03610d2857565b600080fd5b90505190610d3a82610d18565b565b608081830312610d9657600081015167ffffffffffffffff8111610d915782610d66918301610cc5565b92610d8e610d778460208501610cfd565b93610d858160408601610cfd565b93606001610d2d565b90565b6100c3565b6100be565b610daf610daa610db492610233565b6107ee565b610233565b90565b610dc090610d9b565b90565b610dcc90610db7565b90565b5190565b90610ddd82610dcf565b811015610dee576020809102010190565b6108c2565b610dfd905161023e565b90565b60018060a01b031690565b610e17610e1c916109c0565b610e00565b90565b610e299054610e0b565b90565b610e3590610db7565b90565b63ffffffff1690565b60e01b90565b610e5b610e56610e6092610e38565b610e41565b6100c8565b90565b610e72610e78919392936107e8565b926107e8565b8201809211610e8357565b610887565b610e91906107e8565b9052565b60209181520190565b60200190565b610ead9061023e565b9052565b90610ebe81602093610ea4565b0190565b60200190565b90610ee5610edf610ed884610dcf565b8093610e95565b92610e9e565b9060005b818110610ef65750505090565b909192610f0f610f096001928651610eb1565b94610ec2565b9101919091610ee9565b90610f57610f6291610f6996989795610f4a608096610f4060a08801946000890190610e88565b6020870190610e88565b8482036040860152610ec8565b966060830190610730565b0190610e88565b565b610f7490610d9b565b90565b610f8090610f6b565b90565b610f8c90610db7565b90565b610f9881610117565b03610f9f57565b600080fd5b90505190610fb182610f8f565b565b90602082820312610fcd57610fca91600001610fa4565b90565b6100be565b916020610ff4929493610fed60408201966000830190610730565b0190610e88565b565b610ffe6100b3565b3d6000823e3d90fd5b9061101961101483610363565b61034e565b918252565b606090565b3d600014611040576110343d611007565b903d6000602084013e5b565b61104861101e565b9061103e565b67ffffffffffffffff81116110665760208091020190565b61030f565b9092919261108061107b8261104e565b61034e565b93818552602080860192028301928184116110bd57915b8383106110a45750505050565b602080916110b28486610cfd565b815201920191611097565b61017e565b9080601f830112156110e0578160206110dd9351910161106b565b90565b610174565b9060208282031261111657600082015167ffffffffffffffff81116111115761110e92016110c2565b90565b6100c3565b6100be565b6111516111589461114760609498979561113d608086019a600087019061046e565b6020850190610730565b6040830190610e88565b0190610730565b565b5190565b906111688261115a565b811015611179576020809102010190565b6108c2565b61118890516107e8565b90565b909594926111d7946111c66111d0926111bc6080966111b260a088019c600089019061046e565b6020870190610730565b6040850190610e88565b6060830190610730565b0190610e88565b565b50506111e3611c3b565b6111ef600282016107e4565b6112026111fc60006107f1565b916107e8565b1461150a5761123c61123660028301611230611220600286016107e4565b61122a600161086b565b9061089d565b906108e3565b9061092b565b9061125161124c60028301610939565b610a0d565b611267611262600183018490610a3c565b610a54565b61127360018201610a71565b6114e857611361926112c3926112b361129d60006004956112976001808301610b04565b01610c36565b60206112a8826104c6565b818301019101610d3c565b9592979197969096979695610dc3565b6113526112e26112dd8a6112d760006107f1565b90610dd3565b610df3565b9661131161130c8b6113066112f682610dcf565b611300600161086b565b9061089d565b90610dd3565b610df3565b9961131f6338ed1739610e47565b938a9291909161133942611333600161086b565b90610e63565b936113426100b3565b9889976020890190815201610f19565b60208201810382520382610325565b9061137361136e85610f77565b610f83565b91602063095ea7b39361139061138b60008601610e1f565b610e2c565b906113af60008a976113ba6113a36100b3565b998a9687958694610e41565b845260048401610fd2565b03925af19182156114e3576113de60006113e392819682966114b7575b5001610e1f565b610e2c565b9082602082019151925af161140f6113f9611023565b6020611404826104c6565b8183010191016110e5565b906000146114745761143a61143561146e939495969261142f600161086b565b9061115e565b61117e565b907f822319dbb05b08c7cd35671754434068fd8759135b8f4da7b227f4b671102e50956114656100b3565b9586958661118b565b0390a15b565b506114af909192937f6962380f6ae5ec8ce3b354d6f544c0bc1c3813881d5a38aeaae1464ef746c1b2946114a66100b3565b9485948561111b565b0390a1611472565b6114d79060203d81116114dc575b6114cf8183610325565b810190610fb3565b6113d7565b503d6114c5565b610ff6565b6114f06100b3565b62461bcd60e51b81528061150660048201610ac0565b0390fd5b6115126100b3565b62461bcd60e51b8152806115286004820161084f565b0390fd5b60401c90565b61153e6115439161152c565b610a57565b90565b6115509054611532565b90565b67ffffffffffffffff1690565b61156c611571916109c0565b611553565b90565b61157e9054611560565b90565b67ffffffffffffffff1690565b6115a261159d6115a7926107eb565b6107ee565b611581565b90565b6115be6115b96115c392610868565b6107ee565b611581565b90565b6115cf90610db7565b90565b906115e567ffffffffffffffff91610ad9565b9181191691161790565b6116036115fe61160892611581565b6107ee565b611581565b90565b90565b9061162361161e61162a926115ef565b61160b565b82546115d2565b9055565b60401b90565b9061164868ff00000000000000009161162e565b9181191691161790565b9061166761166261166e92610af5565b610b01565b8254611634565b9055565b61167b906115aa565b9052565b919061169390600060208501940190611672565b565b9061169e611c5f565b916116b46116ae60008501611546565b15610117565b916116c160008501611574565b806116d56116cf600061158e565b91611581565b14806117fa575b906116f06116ea60016115aa565b91611581565b14806117d1575b611702909115610117565b90816117c0575b5061179d576117339161172861171f60016115aa565b6000870161160e565b8361178a575b611857565b61173b575b50565b611749906000809101611652565b60016117817fc7f505b2f371ae2175ee4913f4499e1f2633a7b5936321eed1cdaeb6115181d2916117786100b3565b9182918261167f565b0390a138611738565b611798600160008701611652565b61172e565b6117a56100b3565b63f92ee8a960e01b8152806117bc600482016101f9565b0390fd5b6117cb915015610117565b38611709565b506117026117de306115c6565b3b6117f26117ec60006107f1565b916107e8565b1490506116f7565b50836116dc565b9061181260018060a01b0391610ad9565b9181191691161790565b61182590610d9b565b90565b6118319061181c565b90565b90565b9061184c61184761185392611828565b611834565b8254611801565b9055565b9061186461187492611cda565b600061186e611c3b565b01611837565b565b9061188091611695565b565b906118949161188f611d4c565b611896565b565b906118a091611e4c565b565b906118ac91611882565b565b6118bf906118ba611f5a565b61190d565b90565b90565b6118d96118d46118de926118c2565b610ad9565b61046b565b90565b61190a7f360894a13ba1a3210667c828492db98dca3e2076cc3735a920a3ca505d382bbc6118c5565b90565b506119166118e1565b90565b6119296119246109f4565b6118ae565b90565b505061193661078d565b5061193f61101e565b611952600261194c611c3b565b016107e4565b61196561195f60006107f1565b916107e8565b141591565b60018060a01b031690565b611981611986916109c0565b61196a565b90565b6119939054611975565b90565b336119bb6119b56119b060006119aa611fbf565b01611989565b61023e565b9161023e565b036119cb576119c990611bf9565b565b6119ed336119d76100b3565b9182916335fdcccd60e21b83526004830161073d565b0390fd5b600080fd5b600080fd5b611a048161046b565b03611a0b57565b600080fd5b90503590611a1d826119fb565b565b611a2881611581565b03611a2f57565b600080fd5b90503590611a4182611a1f565b565b67ffffffffffffffff8111611a5b5760208091020190565b61030f565b90503590611a6d82610ce8565b565b9190604083820312611aab57611aa490611a89604061034e565b93611a97826000830161025f565b6000860152602001611a60565b6020830152565b6119f1565b90929192611ac5611ac082611a43565b61034e565b938185526040602086019202830192818411611b0457915b838310611aea5750505050565b6020604091611af98486611a6f565b815201920191611add565b61017e565b9080601f83011215611b2757816020611b2493359101611ab0565b90565b610174565b91909160a081840312611be657611b4360a061034e565b92611b518160008401611a10565b6000850152611b638160208401611a34565b6020850152604082013567ffffffffffffffff8111611be15781611b889184016103c8565b6040850152606082013567ffffffffffffffff8111611bdc5781611bad9184016103c8565b6060850152608082013567ffffffffffffffff8111611bd757611bd09201611b09565b6080830152565b6119f6565b6119f6565b6119f6565b6119f1565b611bf6903690611b2c565b90565b611c05611c0a91611beb565b612275565b565b611c1590611996565b565b600090565b611c24611c17565b50611c386000611c32611fbf565b01611989565b90565b7f976509985809e047515ccc2c69ccb29a3b3da26dc470e8fda630ec865ee4e30090565b7ff0c57e16840df040f15088dc2f81fe391c3923bec73e23a9662efc9c229c6a0090565b611c97611c92611c9c926107eb565b6107ee565b610233565b90565b611ca890611c83565b90565b611cb490610db7565b90565b90565b90611ccf611cca611cd692611cab565b611cb7565b8254611801565b9055565b80611cf6611cf0611ceb6000611c9f565b61023e565b9161023e565b14611d1157611d0f906000611d09611fbf565b01611cba565b565b611d3c611d1e6000611c9f565b611d266100b3565b9182916335fdcccd60e21b83526004830161073d565b0390fd5b611d4990610db7565b90565b611d5530611d40565b611d87611d817f000000000000000000000000000000000000000000000000000000000000000061023e565b9161023e565b148015611db8575b611d9557565b611d9d6100b3565b63703e46dd60e11b815280611db4600482016101f9565b0390fd5b50611dc16122e6565b611df3611ded7f000000000000000000000000000000000000000000000000000000000000000061023e565b9161023e565b1415611d8f565b611e0390610d9b565b90565b611e0f90611dfa565b90565b611e1b90610db7565b90565b90505190611e2b826119fb565b565b90602082820312611e4757611e4491600001611e1e565b90565b6100be565b9190611e7a6020611e64611e5f86611e06565b611e12565b6352d1902d90611e726100b3565b938492610e41565b82528180611e8a600482016101f9565b03915afa8091600092611f2a575b5015600014611ed4575050906001611eae57505b565b611ed090611eba6100b3565b918291634c9c8ce360e01b83526004830161073d565b0390fd5b9283611eef611ee9611ee46118e1565b61046b565b9161046b565b03611f0457611eff92935061230d565b611eac565b611f2684611f106100b3565b918291632a87526960e21b83526004830161047b565b0390fd5b611f4c91925060203d8111611f53575b611f448183610325565b810190611e2d565b9038611e98565b503d611f3a565b611f6330611d40565b611f95611f8f7f000000000000000000000000000000000000000000000000000000000000000061023e565b9161023e565b03611f9c57565b611fa46100b3565b63703e46dd60e11b815280611fbb600482016101f9565b0390fd5b7fb9605d6807cee7e996cb505aab0fff682142fb832cd7587ec7f7258d8030000090565b611fed604061034e565b90565b52565b90611ffd90610117565b9052565b61200b905161046b565b90565b5190565b601f602091010490565b61203061202b612035926107e8565b6107ee565b6107e8565b90565b90565b919061205161204c6120599361201c565b612038565b90835461098e565b9055565b600090565b6120749161206e61205d565b9161203b565b565b5b818110612082575050565b806120906000600193612062565b01612077565b9190601f81116120a6575b505050565b6120b26120d793610b6d565b9060206120be84612012565b830193106120df575b6120d090612012565b0190612076565b3880806120a1565b91506120d0819290506120c7565b906120fe906000199060080261090c565b191690565b8161210d916120ed565b906002021790565b9061211f816104c6565b9067ffffffffffffffff82116121e1576121438261213d8554610b3a565b85612096565b602090601f8311600114612178579180916121679360009261216c575b5050612103565b90555b565b90915001513880612160565b601f1983169161218785610b6d565b9260005b8181106121c9575091600293918560019694106121af575b5050500201905561216a565b6121bf910151601f8416906120ed565b90553880806121a3565b9193602060018192878701518155019501920161218b565b61030f565b906121f091612115565b565b6121fc9051610117565b90565b9061222c60206001612232946122246000820161221e6000880161200e565b906121e6565b0192016121f2565b90610b04565b565b9061223e916121ff565b565b9081549168010000000000000000831015612270578261226891600161226e95018155610961565b906109d2565b565b61030f565b6122e4906122de60006122d7600261228b611c3b565b6122d160608701516122b4866122ab6122a2611fe3565b93898501611ff0565b60208301611ff3565b6122cc600184016122c6888b01612001565b90610a3c565b612234565b01610939565b9201612001565b90612240565b565b6122ee611c17565b5061230a60006123046122ff6118e1565b612398565b01611989565b90565b906123178261239b565b816123427fbc7cd75a20ee27fd9adebab32041f755214dbc6bffa90cc0225b39da2e5c2d3b91611cab565b9061234b6100b3565b80612355816101f9565b0390a2612361816104c6565b61237461236e60006107f1565b916107e8565b116000146123895761238591612437565b505b565b50506123936123f9565b612387565b90565b803b6123b06123aa60006107f1565b916107e8565b146123d3576123d19060006123cb6123c66118e1565b612398565b01611cba565b565b6123f5906123df6100b3565b918291634c9c8ce360e01b83526004830161073d565b0390fd5b3461240d61240760006107f1565b916107e8565b1161241457565b61241c6100b3565b63b398979f60e01b815280612433600482016101f9565b0390fd5b6000806124649361244661101e565b508390602081019051915af49061245b611023565b90919091612467565b90565b9061247b9061247461101e565b5015610117565b60001461248857506124f5565b612491826104c6565b6124a461249e60006107f1565b916107e8565b14806124d9575b6124b3575090565b6124d5906124bf6100b3565b918291639996b31560e01b83526004830161073d565b0390fd5b50803b6124ef6124e960006107f1565b916107e8565b146124ab565b6124fe816104c6565b61251161250b60006107f1565b916107e8565b1160001461252157805190602001fd5b6125296100b3565b630a12f52160e11b815280612540600482016101f9565b0390fdfea26469706673582212204b020990de36e046a0ead11366fb00cd9933114aa43aa53fd1dd3c17a0e5b64c64736f6c63430008190033",
  "devdoc": {
    "errors": {
      "AddressEmptyCode(address)": [
        {
          "details": "There's no code at `target` (it is not a contract)."
        }
      ],
      "ERC1967InvalidImplementation(address)": [
        {
          "details": "The `implementation` of the proxy is invalid."
        }
      ],
      "ERC1967NonPayable()": [
        {
          "details": "An upgrade function sees `msg.value > 0` that may be lost."
        }
      ],
      "FailedInnerCall()": [
        {
          "details": "A call to an address target failed. The target may have reverted."
        }
      ],
      "InvalidInitialization()": [
        {
          "details": "The contract is already initialized."
        }
      ],
      "NotInitializing()": [
        {
          "details": "The contract is not initializing."
        }
      ],
      "UUPSUnauthorizedCallContext()": [
        {
          "details": "The call is from an unauthorized context."
        }
      ],
      "UUPSUnsupportedProxiableUUID(bytes32)": [
        {
          "details": "The storage `slot` is unsupported as a UUID."
        }
      ]
    },
    "events": {
      "Initialized(uint64)": {
        "details": "Triggered when the contract has been initialized or reinitialized."
      },
      "Upgraded(address)": {
        "details": "Emitted when the implementation is upgraded."
      }
    },
    "kind": "dev",
    "methods": {
      "ccipReceive((bytes32,uint64,bytes,bytes,(address,uint256)[]))": {
        "details": "Note ensure you check the msg.sender is the OffRampRouter",
        "params": {
          "message": "CCIP Message"
        }
      },
      "getRouter()": {
        "returns": {
          "_0": "CCIP router address"
        }
      },
      "proxiableUUID()": {
        "details": "Implementation of the ERC1822 {proxiableUUID} function. This returns the storage slot used by the implementation. It is used to validate the implementation's compatibility when performing an upgrade. IMPORTANT: A proxy pointing at a proxiable contract should not be considered proxiable itself, because this risks bricking a proxy that upgrades to it, by delegating to itself until out of gas. Thus it is critical that this function revert if invoked through a proxy. This is guaranteed by the `notDelegated` modifier."
      },
      "supportsInterface(bytes4)": {
        "details": "Should indicate whether the contract implements IAny2EVMMessageReceiver e.g. return interfaceId == type(IAny2EVMMessageReceiver).interfaceId || interfaceId == type(IERC165).interfaceId This allows CCIP to check if ccipReceive is available before calling it. If this returns false or reverts, only tokens are transferred to the receiver. If this returns true, tokens are transferred and ccipReceive is called atomically. Additionally, if the receiver address does not have code associated with it at the time of execution (EXTCODESIZE returns 0), only tokens will be transferred.",
        "params": {
          "interfaceId": "The interfaceId to check"
        },
        "returns": {
          "_0": "true if the interfaceId is supported"
        }
      },
      "upgradeToAndCall(address,bytes)": {
        "custom:oz-upgrades-unsafe-allow-reachable": "delegatecall",
        "details": "Upgrade the implementation of the proxy to `newImplementation`, and subsequently execute the function call encoded in `data`. Calls {_authorizeUpgrade}. Emits an {Upgraded} event."
      }
    },
    "version": 1
  },
  "userdoc": {
    "kind": "user",
    "methods": {
      "ccipReceive((bytes32,uint64,bytes,bytes,(address,uint256)[]))": {
        "notice": "Called by the Router to deliver a message. If this reverts, any token transfers also revert. The message will move to a FAILED state and become available for manual execution."
      },
      "getRouter()": {
        "notice": "Return the current router"
      },
      "supportsInterface(bytes4)": {
        "notice": "IERC165 supports an interfaceId"
      }
    },
    "version": 1
  },
  "storageLayout": {
    "storage": [],
    "types": null
  }
}