{
  "address": "0xb36A270862221f72f701CC283948CD17ECfC093F",
  "abi": [
    {
      "inputs": [
        {
          "internalType": "address",
          "name": "target",
          "type": "address"
        }
      ],
      "name": "AddressEmptyCode",
      "type": "error"
    },
    {
      "inputs": [
        {
          "internalType": "address",
          "name": "implementation",
          "type": "address"
        }
      ],
      "name": "ERC1967InvalidImplementation",
      "type": "error"
    },
    {
      "inputs": [],
      "name": "ERC1967NonPayable",
      "type": "error"
    },
    {
      "inputs": [],
      "name": "FailedInnerCall",
      "type": "error"
    },
    {
      "inputs": [],
      "name": "InvalidInitialization",
      "type": "error"
    },
    {
      "inputs": [
        {
          "internalType": "address",
          "name": "router",
          "type": "address"
        }
      ],
      "name": "InvalidRouter",
      "type": "error"
    },
    {
      "inputs": [],
      "name": "NotInitializing",
      "type": "error"
    },
    {
      "inputs": [],
      "name": "UUPSUnauthorizedCallContext",
      "type": "error"
    },
    {
      "inputs": [
        {
          "internalType": "bytes32",
          "name": "slot",
          "type": "bytes32"
        }
      ],
      "name": "UUPSUnsupportedProxiableUUID",
      "type": "error"
    },
    {
      "anonymous": false,
      "inputs": [
        {
          "indexed": false,
          "internalType": "uint64",
          "name": "version",
          "type": "uint64"
        }
      ],
      "name": "Initialized",
      "type": "event"
    },
    {
      "anonymous": false,
      "inputs": [
        {
          "indexed": false,
          "internalType": "bytes32",
          "name": "messageId",
          "type": "bytes32"
        },
        {
          "indexed": false,
          "internalType": "address",
          "name": "fromToken",
          "type": "address"
        },
        {
          "indexed": false,
          "internalType": "uint256",
          "name": "fromAmount",
          "type": "uint256"
        },
        {
          "indexed": false,
          "internalType": "address",
          "name": "toToken",
          "type": "address"
        },
        {
          "indexed": false,
          "internalType": "uint256",
          "name": "toAmount",
          "type": "uint256"
        }
      ],
      "name": "OrderFilled",
      "type": "event"
    },
    {
      "anonymous": false,
      "inputs": [
        {
          "indexed": false,
          "internalType": "bytes32",
          "name": "messageId",
          "type": "bytes32"
        },
        {
          "indexed": false,
          "internalType": "address",
          "name": "fromToken",
          "type": "address"
        },
        {
          "indexed": false,
          "internalType": "uint256",
          "name": "fromAmount",
          "type": "uint256"
        },
        {
          "indexed": false,
          "internalType": "address",
          "name": "toToken",
          "type": "address"
        }
      ],
      "name": "OrderWaiting",
      "type": "event"
    },
    {
      "anonymous": false,
      "inputs": [
        {
          "indexed": true,
          "internalType": "address",
          "name": "implementation",
          "type": "address"
        }
      ],
      "name": "Upgraded",
      "type": "event"
    },
    {
      "inputs": [],
      "name": "UPGRADE_INTERFACE_VERSION",
      "outputs": [
        {
          "internalType": "string",
          "name": "",
          "type": "string"
        }
      ],
      "stateMutability": "view",
      "type": "function"
    },
    {
      "inputs": [
        {
          "components": [
            {
              "internalType": "bytes32",
              "name": "messageId",
              "type": "bytes32"
            },
            {
              "internalType": "uint64",
              "name": "sourceChainSelector",
              "type": "uint64"
            },
            {
              "internalType": "bytes",
              "name": "sender",
              "type": "bytes"
            },
            {
              "internalType": "bytes",
              "name": "data",
              "type": "bytes"
            },
            {
              "components": [
                {
                  "internalType": "address",
                  "name": "token",
                  "type": "address"
                },
                {
                  "internalType": "uint256",
                  "name": "amount",
                  "type": "uint256"
                }
              ],
              "internalType": "struct Client.EVMTokenAmount[]",
              "name": "destTokenAmounts",
              "type": "tuple[]"
            }
          ],
          "internalType": "struct Client.Any2EVMMessage",
          "name": "message",
          "type": "tuple"
        }
      ],
      "name": "ccipReceive",
      "outputs": [],
      "stateMutability": "nonpayable",
      "type": "function"
    },
    {
      "inputs": [],
      "name": "getRouter",
      "outputs": [
        {
          "internalType": "address",
          "name": "",
          "type": "address"
        }
      ],
      "stateMutability": "view",
      "type": "function"
    },
    {
      "inputs": [
        {
          "internalType": "address",
          "name": "router_",
          "type": "address"
        },
        {
          "internalType": "contract IUniswapV2Router02",
          "name": "uniswapV2Router_",
          "type": "address"
        }
      ],
      "name": "initialize",
      "outputs": [],
      "stateMutability": "nonpayable",
      "type": "function"
    },
    {
      "inputs": [],
      "name": "proxiableUUID",
      "outputs": [
        {
          "internalType": "bytes32",
          "name": "",
          "type": "bytes32"
        }
      ],
      "stateMutability": "view",
      "type": "function"
    },
    {
      "inputs": [
        {
          "internalType": "bytes4",
          "name": "interfaceId",
          "type": "bytes4"
        }
      ],
      "name": "supportsInterface",
      "outputs": [
        {
          "internalType": "bool",
          "name": "",
          "type": "bool"
        }
      ],
      "stateMutability": "pure",
      "type": "function"
    },
    {
      "inputs": [
        {
          "internalType": "address",
          "name": "newImplementation",
          "type": "address"
        },
        {
          "internalType": "bytes",
          "name": "data",
          "type": "bytes"
        }
      ],
      "name": "upgradeToAndCall",
      "outputs": [],
      "stateMutability": "payable",
      "type": "function"
    }
  ],
  "transactionHash": "0x30ecdfec0dcc233fa353f745e0112dc93cab43f18cedc955ef22d90c342373be",
  "args": [],
  "numDeployments": 2,
  "solcInputHash": "0ed904de7907497049fee0e9a125a5cb",
  "bytecode": "0x60a060405234603957600e6048565b6014603d565b611a3f6100ad8239608051818181610ef701528181610f63015261110b0152611a3f90f35b6043565b60405190565b600080fd5b604e6050565b565b60566058565b565b605e6060565b565b606660a0565b565b60018060a01b031690565b90565b608560816089926068565b6073565b6068565b90565b6093906076565b90565b609d90608c565b90565b60a7306096565b60805256fe60806040526004361015610013575b610618565b61001e60003561008d565b806301ffc9a714610088578063485cc955146100835780634f1ef2861461007e57806352d1902d1461007957806385572ffb14610074578063ad3cb1cc1461006f5763b0f479a10361000e576105e3565b61058b565b610440565b6103bd565b61035d565b6101f3565b61011f565b60e01c90565b60405190565b600080fd5b600080fd5b600080fd5b63ffffffff60e01b1690565b6100bd816100a8565b036100c457565b600080fd5b905035906100d6826100b4565b565b906020828203126100f2576100ef916000016100c9565b90565b61009e565b151590565b610105906100f7565b9052565b919061011d906000602085019401906100fc565b565b3461014f5761014b61013a6101353660046100d8565b610622565b610142610093565b91829182610109565b0390f35b610099565b60018060a01b031690565b61016890610154565b90565b6101748161015f565b0361017b57565b600080fd5b9050359061018d8261016b565b565b6101989061015f565b90565b6101a48161018f565b036101ab57565b600080fd5b905035906101bd8261019b565b565b91906040838203126101e857806101dc6101e59260008601610180565b936020016101b0565b90565b61009e565b60000190565b346102225761020c6102063660046101bf565b90610a2f565b610214610093565b8061021e816101ed565b0390f35b610099565b600080fd5b600080fd5b601f801991011690565b634e487b7160e01b600052604160045260246000fd5b9061025b90610231565b810190811067ffffffffffffffff82111761027557604052565b61023b565b9061028d610286610093565b9283610251565b565b67ffffffffffffffff81116102ad576102a9602091610231565b0190565b61023b565b90826000939282370152565b909291926102d36102ce8261028f565b61027a565b938185526020850190828401116102ef576102ed926102b2565b565b61022c565b9080601f830112156103125781602061030f933591016102be565b90565b610227565b919091604081840312610358576103318360008301610180565b92602082013567ffffffffffffffff81116103535761035092016102f4565b90565b6100a3565b61009e565b61037161036b366004610317565b90610a5b565b610379610093565b80610383816101ed565b0390f35b600091031261039257565b61009e565b90565b6103a390610397565b9052565b91906103bb9060006020850194019061039a565b565b346103ed576103cd366004610387565b6103e96103d8610ad7565b6103e0610093565b918291826103a7565b0390f35b610099565b600080fd5b908160a09103126104055790565b6103f2565b9060208282031261043b57600082013567ffffffffffffffff81116104365761043392016103f7565b90565b6100a3565b61009e565b3461046e5761045861045336600461040a565b610da6565b610460610093565b8061046a816101ed565b0390f35b610099565b67ffffffffffffffff81116104915761048d602091610231565b0190565b61023b565b906104a86104a383610473565b61027a565b918252565b60007f352e302e30000000000000000000000000000000000000000000000000000000910152565b6104df6005610496565b906104ec602083016104ad565b565b6104f66104d5565b90565b6105016104ee565b90565b61050c6104f9565b90565b5190565b60209181520190565b60005b838110610530575050906000910152565b80602091830151818501520161051f565b61056061056960209361056e936105578161050f565b93848093610513565b9586910161051c565b610231565b0190565b6105889160208201916000818403910152610541565b90565b346105bb5761059b366004610387565b6105b76105a6610504565b6105ae610093565b91829182610572565b0390f35b610099565b6105c99061015f565b9052565b91906105e1906000602085019401906105c0565b565b34610613576105f3366004610387565b61060f6105fe610db6565b610606610093565b918291826105cd565b0390f35b610099565b600080fd5b600090565b61062a61061d565b508061064561063f6385572ffb60e01b6100a8565b916100a8565b14908115610652575b5090565b905061066d6106676301ffc9a760e01b6100a8565b916100a8565b143861064e565b60401c90565b60ff1690565b61068c61069191610674565b61067a565b90565b61069e9054610680565b90565b60001c90565b67ffffffffffffffff1690565b6106c06106c5916106a1565b6106a7565b90565b6106d290546106b4565b90565b67ffffffffffffffff1690565b90565b90565b6106fc6106f7610701926106e2565b6106e5565b6106d5565b90565b90565b61071b61071661072092610704565b6106e5565b6106d5565b90565b61073761073261073c92610154565b6106e5565b610154565b90565b61074890610723565b90565b6107549061073f565b90565b90565b61076e610769610773926106e2565b6106e5565b610757565b90565b60001b90565b9061078f67ffffffffffffffff91610776565b9181191691161790565b6107ad6107a86107b2926106d5565b6106e5565b6106d5565b90565b90565b906107cd6107c86107d492610799565b6107b5565b825461077c565b9055565b60401b90565b906107f268ff0000000000000000916107d8565b9181191691161790565b610805906100f7565b90565b90565b9061082061081b610827926107fc565b610808565b82546107de565b9055565b61083490610707565b9052565b919061084c9060006020850194019061082b565b565b90610857610dd5565b9161086d61086760008501610694565b156100f7565b9161087a600085016106c8565b8061088e61088860006106e8565b916106d5565b14806109b3575b906108a96108a36001610707565b916106d5565b148061098a575b6108bb9091156100f7565b9081610979575b50610956576108ec916108e16108d86001610707565b600087016107b8565b83610943575b610a10565b6108f4575b50565b61090290600080910161080b565b600161093a7fc7f505b2f371ae2175ee4913f4499e1f2633a7b5936321eed1cdaeb6115181d291610931610093565b91829182610838565b0390a1386108f1565b61095160016000870161080b565b6108e7565b61095e610093565b63f92ee8a960e01b815280610975600482016101ed565b0390fd5b6109849150156100f7565b386108c2565b506108bb6109973061074b565b3b6109ab6109a5600061075a565b91610757565b1490506108b0565b5083610895565b906109cb60018060a01b0391610776565b9181191691161790565b6109de90610723565b90565b6109ea906109d5565b90565b90565b90610a05610a00610a0c926109e1565b6109ed565b82546109ba565b9055565b90610a1d610a2d92610e50565b6000610a27610eb6565b016109f0565b565b90610a399161084e565b565b90610a4d91610a48610ee6565b610a4f565b565b90610a5991610fec565b565b90610a6591610a3b565b565b600090565b610a7d90610a786110fa565b610acb565b90565b90565b610a97610a92610a9c92610a80565b610776565b610397565b90565b610ac87f360894a13ba1a3210667c828492db98dca3e2076cc3735a920a3ca505d382bbc610a83565b90565b50610ad4610a9f565b90565b610ae7610ae2610a67565b610a6c565b90565b60018060a01b031690565b610b01610b06916106a1565b610aea565b90565b610b139054610af5565b90565b33610b3b610b35610b306000610b2a61115f565b01610b09565b61015f565b9161015f565b03610b4b57610b4990610d93565b565b610b6d33610b57610093565b9182916335fdcccd60e21b8352600483016105cd565b0390fd5b600080fd5b600080fd5b610b8481610397565b03610b8b57565b600080fd5b90503590610b9d82610b7b565b565b610ba8816106d5565b03610baf57565b600080fd5b90503590610bc182610b9f565b565b67ffffffffffffffff8111610bdb5760208091020190565b61023b565b600080fd5b610bee81610757565b03610bf557565b600080fd5b90503590610c0782610be5565b565b9190604083820312610c4557610c3e90610c23604061027a565b93610c318260008301610180565b6000860152602001610bfa565b6020830152565b610b71565b90929192610c5f610c5a82610bc3565b61027a565b938185526040602086019202830192818411610c9e57915b838310610c845750505050565b6020604091610c938486610c09565b815201920191610c77565b610be0565b9080601f83011215610cc157816020610cbe93359101610c4a565b90565b610227565b91909160a081840312610d8057610cdd60a061027a565b92610ceb8160008401610b90565b6000850152610cfd8160208401610bb4565b6020850152604082013567ffffffffffffffff8111610d7b5781610d229184016102f4565b6040850152606082013567ffffffffffffffff8111610d765781610d479184016102f4565b6060850152608082013567ffffffffffffffff8111610d7157610d6a9201610ca3565b6080830152565b610b76565b610b76565b610b76565b610b71565b610d90903690610cc6565b90565b610d9f610da491610d85565b6115d7565b565b610daf90610b16565b565b600090565b610dbe610db1565b50610dd26000610dcc61115f565b01610b09565b90565b7ff0c57e16840df040f15088dc2f81fe391c3923bec73e23a9662efc9c229c6a0090565b610e0d610e08610e12926106e2565b6106e5565b610154565b90565b610e1e90610df9565b90565b610e2a9061073f565b90565b90565b90610e45610e40610e4c92610e21565b610e2d565b82546109ba565b9055565b80610e6c610e66610e616000610e15565b61015f565b9161015f565b14610e8757610e85906000610e7f61115f565b01610e30565b565b610eb2610e946000610e15565b610e9c610093565b9182916335fdcccd60e21b8352600483016105cd565b0390fd5b7f976509985809e047515ccc2c69ccb29a3b3da26dc470e8fda630ec865ee4e30090565b610ee39061073f565b90565b610eef30610eda565b610f21610f1b7f000000000000000000000000000000000000000000000000000000000000000061015f565b9161015f565b148015610f52575b610f2f57565b610f37610093565b63703e46dd60e11b815280610f4e600482016101ed565b0390fd5b50610f5b6117ab565b610f8d610f877f000000000000000000000000000000000000000000000000000000000000000061015f565b9161015f565b1415610f29565b610f9d90610723565b90565b610fa990610f94565b90565b610fb59061073f565b90565b60e01b90565b90505190610fcb82610b7b565b565b90602082820312610fe757610fe491600001610fbe565b90565b61009e565b919061101a6020611004610fff86610fa0565b610fac565b6352d1902d90611012610093565b938492610fb8565b8252818061102a600482016101ed565b03915afa80916000926110ca575b501560001461107457505090600161104e57505b565b6110709061105a610093565b918291634c9c8ce360e01b8352600483016105cd565b0390fd5b928361108f611089611084610a9f565b610397565b91610397565b036110a45761109f9293506117d2565b61104c565b6110c6846110b0610093565b918291632a87526960e21b8352600483016103a7565b0390fd5b6110ec91925060203d81116110f3575b6110e48183610251565b810190610fcd565b9038611038565b503d6110da565b61110330610eda565b61113561112f7f000000000000000000000000000000000000000000000000000000000000000061015f565b9161015f565b0361113c57565b611144610093565b63703e46dd60e11b81528061115b600482016101ed565b0390fd5b7fb9605d6807cee7e996cb505aab0fff682142fb832cd7587ec7f7258d8030000090565b61118c90610154565b90565b61119881611183565b0361119f57565b600080fd5b905051906111b18261118f565b565b905051906111c082610be5565b565b608081830312611204576111d982600083016111a4565b926112016111ea84602085016111a4565b936111f881604086016111b3565b936060016111b3565b90565b61009e565b5190565b6112169061073f565b90565b60018060a01b031690565b611230611235916106a1565b611219565b90565b6112429054611224565b90565b61124e9061073f565b90565b63ffffffff1690565b61126e61126961127392611251565b610fb8565b6100a8565b90565b67ffffffffffffffff811161128b5760200290565b61023b565b61129c6112a191611276565b61027a565b90565b906112ae9061015f565b9052565b6112c66112c16112cb92610704565b6106e5565b610757565b90565b634e487b7160e01b600052601160045260246000fd5b6112f36112f991939293610757565b92610757565b820180921161130457565b6112ce565b61131290610757565b9052565b50600290565b905090565b90565b61132d9061015f565b9052565b9061133e81602093611324565b0190565b60200190565b61136461135e61135783611316565b809461131c565b91611321565b6000915b8383106113755750505050565b61138b6113856001928451611331565b92611342565b92019190611368565b909594926113e0946113cf6113d9926113c560a0966113bb60c088019c6000890190611309565b6020870190611309565b6040850190611348565b60808301906105c0565b0190611309565b565b906113f46113ef8361028f565b61027a565b918252565b606090565b3d60001461141b5761140f3d6113e2565b903d6000602084013e5b565b6114236113f9565b90611419565b67ffffffffffffffff81116114415760208091020190565b61023b565b9092919261145b61145682611429565b61027a565b938185526020808601920283019281841161149857915b83831061147f5750505050565b6020809161148d84866111b3565b815201920191611472565b610be0565b9080601f830112156114bb578160206114b893519101611446565b90565b610227565b906020828203126114f157600082015167ffffffffffffffff81116114ec576114e9920161149d565b90565b6100a3565b61009e565b6115009051610397565b90565b6115396115409461152f606094989795611525608086019a600087019061039a565b60208501906105c0565b6040830190611309565b01906105c0565b565b634e487b7160e01b600052603260045260246000fd5b5190565b9061156682611558565b811015611577576020809102010190565b611542565b6115869051610757565b90565b909594926115d5946115c46115ce926115ba6080966115b060a088019c600089019061039a565b60208701906105c0565b6040850190611309565b60608301906105c0565b0190611309565b565b6116a66116216116b59260008061161b6116c16116bc83600461160e6060890151602061160382611209565b8183010191016111c2565b9d929b919b97909761120d565b9a61120d565b9b8c969b8c9161162f610eb6565b988d6116636116416338ed173961125a565b95939261165a6116516002611290565b938b85016112a4565b602083016112a4565b73ba45b3d7a42c3554fa98bdc3f790da2676cb05609161168d4261168760016112b2565b906112e4565b93611696610093565b9889976020890190815201611394565b60208201810382520382610251565b9301611238565b611245565b9082602082019151925af16116ed6116d76113fe565b60206116e282611209565b8183010191016114c0565b9060001461175d5761172361171e61170a600061175795016114f6565b9495969261171860016112b2565b9061155c565b61157c565b907f822319dbb05b08c7cd35671754434068fd8759135b8f4da7b227f4b671102e509561174e610093565b95869586611589565b0390a15b565b5061176d60006117a392016114f6565b9192937f6962380f6ae5ec8ce3b354d6f544c0bc1c3813881d5a38aeaae1464ef746c1b29461179a610093565b94859485611503565b0390a161175b565b6117b3610db1565b506117cf60006117c96117c4610a9f565b61185d565b01610b09565b90565b906117dc82611860565b816118077fbc7cd75a20ee27fd9adebab32041f755214dbc6bffa90cc0225b39da2e5c2d3b91610e21565b90611810610093565b8061181a816101ed565b0390a261182681611209565b611839611833600061075a565b91610757565b1160001461184e5761184a916118fc565b505b565b50506118586118be565b61184c565b90565b803b61187561186f600061075a565b91610757565b146118985761189690600061189061188b610a9f565b61185d565b01610e30565b565b6118ba906118a4610093565b918291634c9c8ce360e01b8352600483016105cd565b0390fd5b346118d26118cc600061075a565b91610757565b116118d957565b6118e1610093565b63b398979f60e01b8152806118f8600482016101ed565b0390fd5b6000806119299361190b6113f9565b508390602081019051915af4906119206113fe565b9091909161192c565b90565b90611940906119396113f9565b50156100f7565b60001461194d57506119ba565b61195682611209565b611969611963600061075a565b91610757565b148061199e575b611978575090565b61199a90611984610093565b918291639996b31560e01b8352600483016105cd565b0390fd5b50803b6119b46119ae600061075a565b91610757565b14611970565b6119c381611209565b6119d66119d0600061075a565b91610757565b116000146119e657805190602001fd5b6119ee610093565b630a12f52160e11b815280611a05600482016101ed565b0390fdfea2646970667358221220d9fc6ef33217c2dbb518cd2f8c66639265c4d5d50c5fe6423fcc59e088f3ff8464736f6c63430008190033",
  "devdoc": {
    "errors": {
      "AddressEmptyCode(address)": [
        {
          "details": "There's no code at `target` (it is not a contract)."
        }
      ],
      "ERC1967InvalidImplementation(address)": [
        {
          "details": "The `implementation` of the proxy is invalid."
        }
      ],
      "ERC1967NonPayable()": [
        {
          "details": "An upgrade function sees `msg.value > 0` that may be lost."
        }
      ],
      "FailedInnerCall()": [
        {
          "details": "A call to an address target failed. The target may have reverted."
        }
      ],
      "InvalidInitialization()": [
        {
          "details": "The contract is already initialized."
        }
      ],
      "NotInitializing()": [
        {
          "details": "The contract is not initializing."
        }
      ],
      "UUPSUnauthorizedCallContext()": [
        {
          "details": "The call is from an unauthorized context."
        }
      ],
      "UUPSUnsupportedProxiableUUID(bytes32)": [
        {
          "details": "The storage `slot` is unsupported as a UUID."
        }
      ]
    },
    "events": {
      "Initialized(uint64)": {
        "details": "Triggered when the contract has been initialized or reinitialized."
      },
      "Upgraded(address)": {
        "details": "Emitted when the implementation is upgraded."
      }
    },
    "kind": "dev",
    "methods": {
      "ccipReceive((bytes32,uint64,bytes,bytes,(address,uint256)[]))": {
        "details": "Note ensure you check the msg.sender is the OffRampRouter",
        "params": {
          "message": "CCIP Message"
        }
      },
      "getRouter()": {
        "returns": {
          "_0": "CCIP router address"
        }
      },
      "proxiableUUID()": {
        "details": "Implementation of the ERC1822 {proxiableUUID} function. This returns the storage slot used by the implementation. It is used to validate the implementation's compatibility when performing an upgrade. IMPORTANT: A proxy pointing at a proxiable contract should not be considered proxiable itself, because this risks bricking a proxy that upgrades to it, by delegating to itself until out of gas. Thus it is critical that this function revert if invoked through a proxy. This is guaranteed by the `notDelegated` modifier."
      },
      "supportsInterface(bytes4)": {
        "details": "Should indicate whether the contract implements IAny2EVMMessageReceiver e.g. return interfaceId == type(IAny2EVMMessageReceiver).interfaceId || interfaceId == type(IERC165).interfaceId This allows CCIP to check if ccipReceive is available before calling it. If this returns false or reverts, only tokens are transferred to the receiver. If this returns true, tokens are transferred and ccipReceive is called atomically. Additionally, if the receiver address does not have code associated with it at the time of execution (EXTCODESIZE returns 0), only tokens will be transferred.",
        "params": {
          "interfaceId": "The interfaceId to check"
        },
        "returns": {
          "_0": "true if the interfaceId is supported"
        }
      },
      "upgradeToAndCall(address,bytes)": {
        "custom:oz-upgrades-unsafe-allow-reachable": "delegatecall",
        "details": "Upgrade the implementation of the proxy to `newImplementation`, and subsequently execute the function call encoded in `data`. Calls {_authorizeUpgrade}. Emits an {Upgraded} event."
      }
    },
    "version": 1
  },
  "userdoc": {
    "kind": "user",
    "methods": {
      "ccipReceive((bytes32,uint64,bytes,bytes,(address,uint256)[]))": {
        "notice": "Called by the Router to deliver a message. If this reverts, any token transfers also revert. The message will move to a FAILED state and become available for manual execution."
      },
      "getRouter()": {
        "notice": "Return the current router"
      },
      "supportsInterface(bytes4)": {
        "notice": "IERC165 supports an interfaceId"
      }
    },
    "version": 1
  },
  "storageLayout": {
    "storage": [],
    "types": null
  }
}