{
  "address": "0x7E5Fe822AA62A7E964e33CaC8E51B86F03135f29",
  "abi": [
    {
      "inputs": [
        {
          "internalType": "address",
          "name": "target",
          "type": "address"
        }
      ],
      "name": "AddressEmptyCode",
      "type": "error"
    },
    {
      "inputs": [
        {
          "internalType": "address",
          "name": "implementation",
          "type": "address"
        }
      ],
      "name": "ERC1967InvalidImplementation",
      "type": "error"
    },
    {
      "inputs": [],
      "name": "ERC1967NonPayable",
      "type": "error"
    },
    {
      "inputs": [],
      "name": "FailedInnerCall",
      "type": "error"
    },
    {
      "inputs": [],
      "name": "InvalidInitialization",
      "type": "error"
    },
    {
      "inputs": [
        {
          "internalType": "address",
          "name": "router",
          "type": "address"
        }
      ],
      "name": "InvalidRouter",
      "type": "error"
    },
    {
      "inputs": [],
      "name": "NotInitializing",
      "type": "error"
    },
    {
      "inputs": [],
      "name": "UUPSUnauthorizedCallContext",
      "type": "error"
    },
    {
      "inputs": [
        {
          "internalType": "bytes32",
          "name": "slot",
          "type": "bytes32"
        }
      ],
      "name": "UUPSUnsupportedProxiableUUID",
      "type": "error"
    },
    {
      "anonymous": false,
      "inputs": [
        {
          "indexed": false,
          "internalType": "uint64",
          "name": "version",
          "type": "uint64"
        }
      ],
      "name": "Initialized",
      "type": "event"
    },
    {
      "anonymous": false,
      "inputs": [
        {
          "indexed": false,
          "internalType": "bytes32",
          "name": "messageId",
          "type": "bytes32"
        },
        {
          "indexed": false,
          "internalType": "address",
          "name": "fromToken",
          "type": "address"
        },
        {
          "indexed": false,
          "internalType": "uint256",
          "name": "fromAmount",
          "type": "uint256"
        },
        {
          "indexed": false,
          "internalType": "address",
          "name": "toToken",
          "type": "address"
        },
        {
          "indexed": false,
          "internalType": "uint256",
          "name": "toAmount",
          "type": "uint256"
        }
      ],
      "name": "OrderFilled",
      "type": "event"
    },
    {
      "anonymous": false,
      "inputs": [
        {
          "indexed": false,
          "internalType": "bytes32",
          "name": "messageId",
          "type": "bytes32"
        }
      ],
      "name": "OrderWaiting",
      "type": "event"
    },
    {
      "anonymous": false,
      "inputs": [
        {
          "indexed": true,
          "internalType": "address",
          "name": "implementation",
          "type": "address"
        }
      ],
      "name": "Upgraded",
      "type": "event"
    },
    {
      "inputs": [],
      "name": "UPGRADE_INTERFACE_VERSION",
      "outputs": [
        {
          "internalType": "string",
          "name": "",
          "type": "string"
        }
      ],
      "stateMutability": "view",
      "type": "function"
    },
    {
      "inputs": [
        {
          "components": [
            {
              "internalType": "bytes32",
              "name": "messageId",
              "type": "bytes32"
            },
            {
              "internalType": "uint64",
              "name": "sourceChainSelector",
              "type": "uint64"
            },
            {
              "internalType": "bytes",
              "name": "sender",
              "type": "bytes"
            },
            {
              "internalType": "bytes",
              "name": "data",
              "type": "bytes"
            },
            {
              "components": [
                {
                  "internalType": "address",
                  "name": "token",
                  "type": "address"
                },
                {
                  "internalType": "uint256",
                  "name": "amount",
                  "type": "uint256"
                }
              ],
              "internalType": "struct Client.EVMTokenAmount[]",
              "name": "destTokenAmounts",
              "type": "tuple[]"
            }
          ],
          "internalType": "struct Client.Any2EVMMessage",
          "name": "message",
          "type": "tuple"
        }
      ],
      "name": "ccipReceive",
      "outputs": [],
      "stateMutability": "nonpayable",
      "type": "function"
    },
    {
      "inputs": [],
      "name": "getRouter",
      "outputs": [
        {
          "internalType": "address",
          "name": "",
          "type": "address"
        }
      ],
      "stateMutability": "view",
      "type": "function"
    },
    {
      "inputs": [
        {
          "internalType": "address",
          "name": "router_",
          "type": "address"
        },
        {
          "internalType": "contract IUniswapV2Router02",
          "name": "uniswapV2Router_",
          "type": "address"
        }
      ],
      "name": "initialize",
      "outputs": [],
      "stateMutability": "nonpayable",
      "type": "function"
    },
    {
      "inputs": [],
      "name": "proxiableUUID",
      "outputs": [
        {
          "internalType": "bytes32",
          "name": "",
          "type": "bytes32"
        }
      ],
      "stateMutability": "view",
      "type": "function"
    },
    {
      "inputs": [
        {
          "internalType": "bytes4",
          "name": "interfaceId",
          "type": "bytes4"
        }
      ],
      "name": "supportsInterface",
      "outputs": [
        {
          "internalType": "bool",
          "name": "",
          "type": "bool"
        }
      ],
      "stateMutability": "pure",
      "type": "function"
    },
    {
      "inputs": [
        {
          "internalType": "address",
          "name": "newImplementation",
          "type": "address"
        },
        {
          "internalType": "bytes",
          "name": "data",
          "type": "bytes"
        }
      ],
      "name": "upgradeToAndCall",
      "outputs": [],
      "stateMutability": "payable",
      "type": "function"
    }
  ],
  "transactionHash": "0xf0e415faa23909247d44c9911465575e7e89caa512148536f4846224f057fd19",
  "args": [],
  "numDeployments": 1,
  "solcInputHash": "90c654ef1b69b75be2b8ab00f91f7923",
  "bytecode": "0x60a06040523073ffffffffffffffffffffffffffffffffffffffff1660809073ffffffffffffffffffffffffffffffffffffffff16815250348015604257600080fd5b50608051611bc761006c600039600081816106d20152818161072701526108da0152611bc76000f3fe6080604052600436106100705760003560e01c806352d1902d1161004e57806352d1902d146100f757806385572ffb14610122578063ad3cb1cc1461014b578063b0f479a11461017657610070565b806301ffc9a714610075578063485cc955146100b25780634f1ef286146100db575b600080fd5b34801561008157600080fd5b5061009c60048036038101906100979190610fd5565b6101a1565b6040516100a9919061101d565b60405180910390f35b3480156100be57600080fd5b506100d960048036038101906100d491906110d4565b610273565b005b6100f560048036038101906100f0919061125a565b610453565b005b34801561010357600080fd5b5061010c610472565b60405161011991906112cf565b60405180910390f35b34801561012e57600080fd5b506101496004803603810190610144919061130e565b6104a5565b005b34801561015757600080fd5b50610160610555565b60405161016d91906113d6565b60405180910390f35b34801561018257600080fd5b5061018b61058e565b6040516101989190611407565b60405180910390f35b60007f85572ffb000000000000000000000000000000000000000000000000000000007bffffffffffffffffffffffffffffffffffffffffffffffffffffffff1916827bffffffffffffffffffffffffffffffffffffffffffffffffffffffff1916148061026c57507f01ffc9a7000000000000000000000000000000000000000000000000000000007bffffffffffffffffffffffffffffffffffffffffffffffffffffffff1916827bffffffffffffffffffffffffffffffffffffffffffffffffffffffff1916145b9050919050565b600061027d6105c1565b905060008160000160089054906101000a900460ff1615905060008260000160009054906101000a900467ffffffffffffffff1690506000808267ffffffffffffffff161480156102cb5750825b9050600060018367ffffffffffffffff16148015610300575060003073ffffffffffffffffffffffffffffffffffffffff163b145b90508115801561030e575080155b15610345576040517ff92ee8a900000000000000000000000000000000000000000000000000000000815260040160405180910390fd5b60018560000160006101000a81548167ffffffffffffffff021916908367ffffffffffffffff16021790555083156103955760018560000160086101000a81548160ff0219169083151502179055505b61039e876105e9565b60006103a86106a8565b9050868160000160006101000a81548173ffffffffffffffffffffffffffffffffffffffff021916908373ffffffffffffffffffffffffffffffffffffffff16021790555050831561044a5760008560000160086101000a81548160ff0219169083151502179055507fc7f505b2f371ae2175ee4913f4499e1f2633a7b5936321eed1cdaeb6115181d26001604051610441919061147b565b60405180910390a15b50505050505050565b61045b6106d0565b610464826107b6565b61046e82826107b9565b5050565b600061047c6108d8565b7f360894a13ba1a3210667c828492db98dca3e2076cc3735a920a3ca505d382bbc60001b905090565b6104ad61095f565b60000160009054906101000a900473ffffffffffffffffffffffffffffffffffffffff1673ffffffffffffffffffffffffffffffffffffffff163373ffffffffffffffffffffffffffffffffffffffff161461054057336040517fd7f733340000000000000000000000000000000000000000000000000000000081526004016105379190611407565b60405180910390fd5b6105528161054d90611726565b610987565b50565b6040518060400160405280600581526020017f352e302e3000000000000000000000000000000000000000000000000000000081525081565b600061059861095f565b60000160009054906101000a900473ffffffffffffffffffffffffffffffffffffffff16905090565b60007ff0c57e16840df040f15088dc2f81fe391c3923bec73e23a9662efc9c229c6a00905090565b600073ffffffffffffffffffffffffffffffffffffffff168173ffffffffffffffffffffffffffffffffffffffff160361065b5760006040517fd7f733340000000000000000000000000000000000000000000000000000000081526004016106529190611407565b60405180910390fd5b8061066461095f565b60000160006101000a81548173ffffffffffffffffffffffffffffffffffffffff021916908373ffffffffffffffffffffffffffffffffffffffff16021790555050565b60007f976509985809e047515ccc2c69ccb29a3b3da26dc470e8fda630ec865ee4e300905090565b7f000000000000000000000000000000000000000000000000000000000000000073ffffffffffffffffffffffffffffffffffffffff163073ffffffffffffffffffffffffffffffffffffffff16148061077d57507f000000000000000000000000000000000000000000000000000000000000000073ffffffffffffffffffffffffffffffffffffffff16610764610c33565b73ffffffffffffffffffffffffffffffffffffffff1614155b156107b4576040517fe07c8dba00000000000000000000000000000000000000000000000000000000815260040160405180910390fd5b565b50565b8173ffffffffffffffffffffffffffffffffffffffff166352d1902d6040518163ffffffff1660e01b8152600401602060405180830381865afa92505050801561082157506040513d601f19601f8201168201806040525081019061081e919061174e565b60015b61086257816040517f4c9c8ce30000000000000000000000000000000000000000000000000000000081526004016108599190611407565b60405180910390fd5b7f360894a13ba1a3210667c828492db98dca3e2076cc3735a920a3ca505d382bbc60001b81146108c957806040517faa1d49a40000000000000000000000000000000000000000000000000000000081526004016108c091906112cf565b60405180910390fd5b6108d38383610c8a565b505050565b7f000000000000000000000000000000000000000000000000000000000000000073ffffffffffffffffffffffffffffffffffffffff163073ffffffffffffffffffffffffffffffffffffffff161461095d576040517fe07c8dba00000000000000000000000000000000000000000000000000000000815260040160405180910390fd5b565b60007fb9605d6807cee7e996cb505aab0fff682142fb832cd7587ec7f7258d80300000905090565b60008060008084606001518060200190518101906109a591906117ce565b935093509350935060006109b76106a8565b905060008160000160009054906101000a9050506338ed173960e01b848460405180604001604052808a73ffffffffffffffffffffffffffffffffffffffff1673ffffffffffffffffffffffffffffffffffffffff1681526020018973ffffffffffffffffffffffffffffffffffffffff1673ffffffffffffffffffffffffffffffffffffffff1681525073ba45b3d7a42c3554fa98bdc3f790da2676cb0560600142610a649190611864565b604051602401610a78959493929190611952565b604051602081830303815290604052907bffffffffffffffffffffffffffffffffffffffffffffffffffffffff19166020820180517bffffffffffffffffffffffffffffffffffffffffffffffffffffffff838183161783525050505090506000808360000160009054906101000a900473ffffffffffffffffffffffffffffffffffffffff1673ffffffffffffffffffffffffffffffffffffffff1683604051610b2391906119ec565b6000604051808303816000865af19150503d8060008114610b60576040519150601f19603f3d011682016040523d82523d6000602084013e610b65565b606091505b5091509150600081806020019051810190610b809190611ac6565b90508215610beb577f822319dbb05b08c7cd35671754434068fd8759135b8f4da7b227f4b671102e508a600001518a898b85600181518110610bc557610bc4611b0f565b5b6020026020010151604051610bde959493929190611b3e565b60405180910390a1610c27565b7f869234f21ebc0beb842b05983009026c7cdb8f57e5fe1c5b7813a31584f928e28a60000151604051610c1e91906112cf565b60405180910390a15b50505050505050505050565b6000610c617f360894a13ba1a3210667c828492db98dca3e2076cc3735a920a3ca505d382bbc60001b610cfd565b60000160009054906101000a900473ffffffffffffffffffffffffffffffffffffffff16905090565b610c9382610d07565b8173ffffffffffffffffffffffffffffffffffffffff167fbc7cd75a20ee27fd9adebab32041f755214dbc6bffa90cc0225b39da2e5c2d3b60405160405180910390a2600081511115610cf057610cea8282610dd4565b50610cf9565b610cf8610e58565b5b5050565b6000819050919050565b60008173ffffffffffffffffffffffffffffffffffffffff163b03610d6357806040517f4c9c8ce3000000000000000000000000000000000000000000000000000000008152600401610d5a9190611407565b60405180910390fd5b80610d907f360894a13ba1a3210667c828492db98dca3e2076cc3735a920a3ca505d382bbc60001b610cfd565b60000160006101000a81548173ffffffffffffffffffffffffffffffffffffffff021916908373ffffffffffffffffffffffffffffffffffffffff16021790555050565b60606000808473ffffffffffffffffffffffffffffffffffffffff1684604051610dfe91906119ec565b600060405180830381855af49150503d8060008114610e39576040519150601f19603f3d011682016040523d82523d6000602084013e610e3e565b606091505b5091509150610e4e858383610e95565b9250505092915050565b6000341115610e93576040517fb398979f00000000000000000000000000000000000000000000000000000000815260040160405180910390fd5b565b606082610eaa57610ea582610f24565b610f1c565b60008251148015610ed2575060008473ffffffffffffffffffffffffffffffffffffffff163b145b15610f1457836040517f9996b315000000000000000000000000000000000000000000000000000000008152600401610f0b9190611407565b60405180910390fd5b819050610f1d565b5b9392505050565b600081511115610f375780518082602001fd5b6040517f1425ea4200000000000000000000000000000000000000000000000000000000815260040160405180910390fd5b6000604051905090565b600080fd5b600080fd5b60007fffffffff0000000000000000000000000000000000000000000000000000000082169050919050565b610fb281610f7d565b8114610fbd57600080fd5b50565b600081359050610fcf81610fa9565b92915050565b600060208284031215610feb57610fea610f73565b5b6000610ff984828501610fc0565b91505092915050565b60008115159050919050565b61101781611002565b82525050565b6000602082019050611032600083018461100e565b92915050565b600073ffffffffffffffffffffffffffffffffffffffff82169050919050565b600061106382611038565b9050919050565b61107381611058565b811461107e57600080fd5b50565b6000813590506110908161106a565b92915050565b60006110a182611058565b9050919050565b6110b181611096565b81146110bc57600080fd5b50565b6000813590506110ce816110a8565b92915050565b600080604083850312156110eb576110ea610f73565b5b60006110f985828601611081565b925050602061110a858286016110bf565b9150509250929050565b600080fd5b600080fd5b6000601f19601f8301169050919050565b7f4e487b7100000000000000000000000000000000000000000000000000000000600052604160045260246000fd5b6111678261111e565b810181811067ffffffffffffffff821117156111865761118561112f565b5b80604052505050565b6000611199610f69565b90506111a5828261115e565b919050565b600067ffffffffffffffff8211156111c5576111c461112f565b5b6111ce8261111e565b9050602081019050919050565b82818337600083830152505050565b60006111fd6111f8846111aa565b61118f565b90508281526020810184848401111561121957611218611119565b5b6112248482856111db565b509392505050565b600082601f83011261124157611240611114565b5b81356112518482602086016111ea565b91505092915050565b6000806040838503121561127157611270610f73565b5b600061127f85828601611081565b925050602083013567ffffffffffffffff8111156112a05761129f610f78565b5b6112ac8582860161122c565b9150509250929050565b6000819050919050565b6112c9816112b6565b82525050565b60006020820190506112e460008301846112c0565b92915050565b600080fd5b600060a08284031215611305576113046112ea565b5b81905092915050565b60006020828403121561132457611323610f73565b5b600082013567ffffffffffffffff81111561134257611341610f78565b5b61134e848285016112ef565b91505092915050565b600081519050919050565b600082825260208201905092915050565b60005b83811015611391578082015181840152602081019050611376565b60008484015250505050565b60006113a882611357565b6113b28185611362565b93506113c2818560208601611373565b6113cb8161111e565b840191505092915050565b600060208201905081810360008301526113f0818461139d565b905092915050565b61140181611058565b82525050565b600060208201905061141c60008301846113f8565b92915050565b6000819050919050565b600067ffffffffffffffff82169050919050565b6000819050919050565b600061146561146061145b84611422565b611440565b61142c565b9050919050565b6114758161144a565b82525050565b6000602082019050611490600083018461146c565b92915050565b600080fd5b600080fd5b6114a9816112b6565b81146114b457600080fd5b50565b6000813590506114c6816114a0565b92915050565b6114d58161142c565b81146114e057600080fd5b50565b6000813590506114f2816114cc565b92915050565b600067ffffffffffffffff8211156115135761151261112f565b5b602082029050602081019050919050565b600080fd5b6000819050919050565b61153c81611529565b811461154757600080fd5b50565b60008135905061155981611533565b92915050565b60006040828403121561157557611574611496565b5b61157f604061118f565b9050600061158f84828501611081565b60008301525060206115a38482850161154a565b60208301525092915050565b60006115c26115bd846114f8565b61118f565b905080838252602082019050604084028301858111156115e5576115e4611524565b5b835b8181101561160e57806115fa888261155f565b8452602084019350506040810190506115e7565b5050509392505050565b600082601f83011261162d5761162c611114565b5b813561163d8482602086016115af565b91505092915050565b600060a0828403121561165c5761165b611496565b5b61166660a061118f565b90506000611676848285016114b7565b600083015250602061168a848285016114e3565b602083015250604082013567ffffffffffffffff8111156116ae576116ad61149b565b5b6116ba8482850161122c565b604083015250606082013567ffffffffffffffff8111156116de576116dd61149b565b5b6116ea8482850161122c565b606083015250608082013567ffffffffffffffff81111561170e5761170d61149b565b5b61171a84828501611618565b60808301525092915050565b60006117323683611646565b9050919050565b600081519050611748816114a0565b92915050565b60006020828403121561176457611763610f73565b5b600061177284828501611739565b91505092915050565b600061178682611038565b9050919050565b6117968161177b565b81146117a157600080fd5b50565b6000815190506117b38161178d565b92915050565b6000815190506117c881611533565b92915050565b600080600080608085870312156117e8576117e7610f73565b5b60006117f6878288016117a4565b9450506020611807878288016117a4565b9350506040611818878288016117b9565b9250506060611829878288016117b9565b91505092959194509250565b7f4e487b7100000000000000000000000000000000000000000000000000000000600052601160045260246000fd5b600061186f82611529565b915061187a83611529565b925082820190508082111561189257611891611835565b5b92915050565b6118a181611529565b82525050565b600060029050919050565b600081905092915050565b6000819050919050565b6118d081611058565b82525050565b60006118e283836118c7565b60208301905092915050565b6000602082019050919050565b611904816118a7565b61190e81846118b2565b9250611919826118bd565b8060005b8381101561194a57815161193187826118d6565b965061193c836118ee565b92505060018101905061191d565b505050505050565b600060c0820190506119676000830188611898565b6119746020830187611898565b61198160408301866118fb565b61198e60808301856113f8565b61199b60a0830184611898565b9695505050505050565b600081519050919050565b600081905092915050565b60006119c6826119a5565b6119d081856119b0565b93506119e0818560208601611373565b80840191505092915050565b60006119f882846119bb565b915081905092915050565b600067ffffffffffffffff821115611a1e57611a1d61112f565b5b602082029050602081019050919050565b6000611a42611a3d84611a03565b61118f565b90508083825260208201905060208402830185811115611a6557611a64611524565b5b835b81811015611a8e5780611a7a88826117b9565b845260208401935050602081019050611a67565b5050509392505050565b600082601f830112611aad57611aac611114565b5b8151611abd848260208601611a2f565b91505092915050565b600060208284031215611adc57611adb610f73565b5b600082015167ffffffffffffffff811115611afa57611af9610f78565b5b611b0684828501611a98565b91505092915050565b7f4e487b7100000000000000000000000000000000000000000000000000000000600052603260045260246000fd5b600060a082019050611b5360008301886112c0565b611b6060208301876113f8565b611b6d6040830186611898565b611b7a60608301856113f8565b611b876080830184611898565b969550505050505056fea2646970667358221220c5642266696283c71a4289de74e9fb7a235a83dfd41abf8215e666a1ecf9766b64736f6c63430008190033",
  "devdoc": {
    "errors": {
      "AddressEmptyCode(address)": [
        {
          "details": "There's no code at `target` (it is not a contract)."
        }
      ],
      "ERC1967InvalidImplementation(address)": [
        {
          "details": "The `implementation` of the proxy is invalid."
        }
      ],
      "ERC1967NonPayable()": [
        {
          "details": "An upgrade function sees `msg.value > 0` that may be lost."
        }
      ],
      "FailedInnerCall()": [
        {
          "details": "A call to an address target failed. The target may have reverted."
        }
      ],
      "InvalidInitialization()": [
        {
          "details": "The contract is already initialized."
        }
      ],
      "NotInitializing()": [
        {
          "details": "The contract is not initializing."
        }
      ],
      "UUPSUnauthorizedCallContext()": [
        {
          "details": "The call is from an unauthorized context."
        }
      ],
      "UUPSUnsupportedProxiableUUID(bytes32)": [
        {
          "details": "The storage `slot` is unsupported as a UUID."
        }
      ]
    },
    "events": {
      "Initialized(uint64)": {
        "details": "Triggered when the contract has been initialized or reinitialized."
      },
      "Upgraded(address)": {
        "details": "Emitted when the implementation is upgraded."
      }
    },
    "kind": "dev",
    "methods": {
      "ccipReceive((bytes32,uint64,bytes,bytes,(address,uint256)[]))": {
        "details": "Note ensure you check the msg.sender is the OffRampRouter",
        "params": {
          "message": "CCIP Message"
        }
      },
      "getRouter()": {
        "returns": {
          "_0": "CCIP router address"
        }
      },
      "proxiableUUID()": {
        "details": "Implementation of the ERC1822 {proxiableUUID} function. This returns the storage slot used by the implementation. It is used to validate the implementation's compatibility when performing an upgrade. IMPORTANT: A proxy pointing at a proxiable contract should not be considered proxiable itself, because this risks bricking a proxy that upgrades to it, by delegating to itself until out of gas. Thus it is critical that this function revert if invoked through a proxy. This is guaranteed by the `notDelegated` modifier."
      },
      "supportsInterface(bytes4)": {
        "details": "Should indicate whether the contract implements IAny2EVMMessageReceiver e.g. return interfaceId == type(IAny2EVMMessageReceiver).interfaceId || interfaceId == type(IERC165).interfaceId This allows CCIP to check if ccipReceive is available before calling it. If this returns false or reverts, only tokens are transferred to the receiver. If this returns true, tokens are transferred and ccipReceive is called atomically. Additionally, if the receiver address does not have code associated with it at the time of execution (EXTCODESIZE returns 0), only tokens will be transferred.",
        "params": {
          "interfaceId": "The interfaceId to check"
        },
        "returns": {
          "_0": "true if the interfaceId is supported"
        }
      },
      "upgradeToAndCall(address,bytes)": {
        "custom:oz-upgrades-unsafe-allow-reachable": "delegatecall",
        "details": "Upgrade the implementation of the proxy to `newImplementation`, and subsequently execute the function call encoded in `data`. Calls {_authorizeUpgrade}. Emits an {Upgraded} event."
      }
    },
    "version": 1
  },
  "userdoc": {
    "kind": "user",
    "methods": {
      "ccipReceive((bytes32,uint64,bytes,bytes,(address,uint256)[]))": {
        "notice": "Called by the Router to deliver a message. If this reverts, any token transfers also revert. The message will move to a FAILED state and become available for manual execution."
      },
      "getRouter()": {
        "notice": "Return the current router"
      },
      "supportsInterface(bytes4)": {
        "notice": "IERC165 supports an interfaceId"
      }
    },
    "version": 1
  },
  "storageLayout": {
    "storage": [],
    "types": null
  }
}